{
  "contractName": "ERC721Mintable",
  "abi": [
    {
      "constant": true,
      "inputs": [
        {
          "name": "interfaceId",
          "type": "bytes4"
        }
      ],
      "name": "supportsInterface",
      "outputs": [
        {
          "name": "",
          "type": "bool"
        }
      ],
      "payable": false,
      "stateMutability": "view",
      "type": "function"
    },
    {
      "constant": true,
      "inputs": [],
      "name": "name",
      "outputs": [
        {
          "name": "",
          "type": "string"
        }
      ],
      "payable": false,
      "stateMutability": "view",
      "type": "function"
    },
    {
      "constant": true,
      "inputs": [
        {
          "name": "tokenId",
          "type": "uint256"
        }
      ],
      "name": "getApproved",
      "outputs": [
        {
          "name": "",
          "type": "address"
        }
      ],
      "payable": false,
      "stateMutability": "view",
      "type": "function"
    },
    {
      "constant": false,
      "inputs": [
        {
          "name": "to",
          "type": "address"
        },
        {
          "name": "tokenId",
          "type": "uint256"
        }
      ],
      "name": "approve",
      "outputs": [],
      "payable": false,
      "stateMutability": "nonpayable",
      "type": "function"
    },
    {
      "constant": false,
      "inputs": [
        {
          "name": "paused",
          "type": "bool"
        }
      ],
      "name": "setPaused",
      "outputs": [],
      "payable": false,
      "stateMutability": "nonpayable",
      "type": "function"
    },
    {
      "constant": true,
      "inputs": [],
      "name": "totalSupply",
      "outputs": [
        {
          "name": "",
          "type": "uint256"
        }
      ],
      "payable": false,
      "stateMutability": "view",
      "type": "function"
    },
    {
      "constant": false,
      "inputs": [
        {
          "name": "from",
          "type": "address"
        },
        {
          "name": "to",
          "type": "address"
        },
        {
          "name": "tokenId",
          "type": "uint256"
        }
      ],
      "name": "transferFrom",
      "outputs": [],
      "payable": false,
      "stateMutability": "nonpayable",
      "type": "function"
    },
    {
      "constant": false,
      "inputs": [
        {
          "name": "_myid",
          "type": "bytes32"
        },
        {
          "name": "_result",
          "type": "string"
        }
      ],
      "name": "__callback",
      "outputs": [],
      "payable": false,
      "stateMutability": "nonpayable",
      "type": "function"
    },
    {
      "constant": true,
      "inputs": [
        {
          "name": "owner",
          "type": "address"
        },
        {
          "name": "index",
          "type": "uint256"
        }
      ],
      "name": "tokenOfOwnerByIndex",
      "outputs": [
        {
          "name": "",
          "type": "uint256"
        }
      ],
      "payable": false,
      "stateMutability": "view",
      "type": "function"
    },
    {
      "constant": false,
      "inputs": [
        {
          "name": "_myid",
          "type": "bytes32"
        },
        {
          "name": "_result",
          "type": "string"
        },
        {
          "name": "_proof",
          "type": "bytes"
        }
      ],
      "name": "__callback",
      "outputs": [],
      "payable": false,
      "stateMutability": "nonpayable",
      "type": "function"
    },
    {
      "constant": false,
      "inputs": [
        {
          "name": "from",
          "type": "address"
        },
        {
          "name": "to",
          "type": "address"
        },
        {
          "name": "tokenId",
          "type": "uint256"
        }
      ],
      "name": "safeTransferFrom",
      "outputs": [],
      "payable": false,
      "stateMutability": "nonpayable",
      "type": "function"
    },
    {
      "constant": true,
      "inputs": [
        {
          "name": "index",
          "type": "uint256"
        }
      ],
      "name": "tokenByIndex",
      "outputs": [
        {
          "name": "",
          "type": "uint256"
        }
      ],
      "payable": false,
      "stateMutability": "view",
      "type": "function"
    },
    {
      "constant": true,
      "inputs": [
        {
          "name": "tokenId",
          "type": "uint256"
        }
      ],
      "name": "ownerOf",
      "outputs": [
        {
          "name": "",
          "type": "address"
        }
      ],
      "payable": false,
      "stateMutability": "view",
      "type": "function"
    },
    {
      "constant": true,
      "inputs": [
        {
          "name": "owner",
          "type": "address"
        }
      ],
      "name": "balanceOf",
      "outputs": [
        {
          "name": "",
          "type": "uint256"
        }
      ],
      "payable": false,
      "stateMutability": "view",
      "type": "function"
    },
    {
      "constant": true,
      "inputs": [],
      "name": "owner",
      "outputs": [
        {
          "name": "",
          "type": "address"
        }
      ],
      "payable": false,
      "stateMutability": "view",
      "type": "function"
    },
    {
      "constant": true,
      "inputs": [],
      "name": "symbol",
      "outputs": [
        {
          "name": "",
          "type": "string"
        }
      ],
      "payable": false,
      "stateMutability": "view",
      "type": "function"
    },
    {
      "constant": false,
      "inputs": [
        {
          "name": "to",
          "type": "address"
        },
        {
          "name": "approved",
          "type": "bool"
        }
      ],
      "name": "setApprovalForAll",
      "outputs": [],
      "payable": false,
      "stateMutability": "nonpayable",
      "type": "function"
    },
    {
      "constant": false,
      "inputs": [
        {
          "name": "from",
          "type": "address"
        },
        {
          "name": "to",
          "type": "address"
        },
        {
          "name": "tokenId",
          "type": "uint256"
        },
        {
          "name": "_data",
          "type": "bytes"
        }
      ],
      "name": "safeTransferFrom",
      "outputs": [],
      "payable": false,
      "stateMutability": "nonpayable",
      "type": "function"
    },
    {
      "constant": true,
      "inputs": [
        {
          "name": "tokenId",
          "type": "uint256"
        }
      ],
      "name": "tokenURI",
      "outputs": [
        {
          "name": "",
          "type": "string"
        }
      ],
      "payable": false,
      "stateMutability": "view",
      "type": "function"
    },
    {
      "constant": true,
      "inputs": [],
      "name": "baseTokenURI",
      "outputs": [
        {
          "name": "",
          "type": "string"
        }
      ],
      "payable": false,
      "stateMutability": "view",
      "type": "function"
    },
    {
      "constant": true,
      "inputs": [
        {
          "name": "owner",
          "type": "address"
        },
        {
          "name": "operator",
          "type": "address"
        }
      ],
      "name": "isApprovedForAll",
      "outputs": [
        {
          "name": "",
          "type": "bool"
        }
      ],
      "payable": false,
      "stateMutability": "view",
      "type": "function"
    },
    {
      "constant": false,
      "inputs": [
        {
          "name": "newOwner",
          "type": "address"
        }
      ],
      "name": "transferOwnership",
      "outputs": [],
      "payable": false,
      "stateMutability": "nonpayable",
      "type": "function"
    },
    {
      "inputs": [],
      "payable": false,
      "stateMutability": "nonpayable",
      "type": "constructor"
    },
    {
      "anonymous": false,
      "inputs": [
        {
          "indexed": true,
          "name": "from",
          "type": "address"
        },
        {
          "indexed": true,
          "name": "to",
          "type": "address"
        },
        {
          "indexed": true,
          "name": "tokenId",
          "type": "uint256"
        }
      ],
      "name": "Transfer",
      "type": "event"
    },
    {
      "anonymous": false,
      "inputs": [
        {
          "indexed": true,
          "name": "owner",
          "type": "address"
        },
        {
          "indexed": true,
          "name": "approved",
          "type": "address"
        },
        {
          "indexed": true,
          "name": "tokenId",
          "type": "uint256"
        }
      ],
      "name": "Approval",
      "type": "event"
    },
    {
      "anonymous": false,
      "inputs": [
        {
          "indexed": true,
          "name": "owner",
          "type": "address"
        },
        {
          "indexed": true,
          "name": "operator",
          "type": "address"
        },
        {
          "indexed": false,
          "name": "approved",
          "type": "bool"
        }
      ],
      "name": "ApprovalForAll",
      "type": "event"
    },
    {
      "anonymous": false,
      "inputs": [
        {
          "indexed": false,
          "name": "account",
          "type": "address"
        }
      ],
      "name": "Paused",
      "type": "event"
    },
    {
      "anonymous": false,
      "inputs": [
        {
          "indexed": false,
          "name": "account",
          "type": "address"
        }
      ],
      "name": "Unpaused",
      "type": "event"
    },
    {
      "anonymous": false,
      "inputs": [
        {
          "indexed": false,
          "name": "newOwner",
          "type": "address"
        }
      ],
      "name": "OwnershipTransfered",
      "type": "event"
    },
    {
      "constant": false,
      "inputs": [
        {
          "name": "to",
          "type": "address"
        },
        {
          "name": "tokenId",
          "type": "uint256"
        }
      ],
      "name": "mint",
      "outputs": [
        {
          "name": "",
          "type": "bool"
        }
      ],
      "payable": false,
      "stateMutability": "nonpayable",
      "type": "function"
    }
  ],
  "bytecode": "0x60806040523480156200001157600080fd5b506040518060400160405280600a81526020017f5265616c457374617465000000000000000000000000000000000000000000008152506040518060400160405280600481526020017f5245414c000000000000000000000000000000000000000000000000000000008152506040518060600160405280603f815260200162002fcb603f9139336000806101000a81548173ffffffffffffffffffffffffffffffffffffffff021916908373ffffffffffffffffffffffffffffffffffffffff1602179055507f9736aeb40a8f30a5c076a9897428fdf7ec0e909c96dce63533664c9b5c835da66000809054906101000a900473ffffffffffffffffffffffffffffffffffffffff16604051808273ffffffffffffffffffffffffffffffffffffffff1673ffffffffffffffffffffffffffffffffffffffff16815260200191505060405180910390a160008060146101000a81548160ff0219169083151502179055506200018e6301ffc9a760e01b6200022a60201b60201c565b620001a66380ac58cd60e01b6200022a60201b60201c565b620001be63780e9d6360e01b6200022a60201b60201c565b82600f9080519060200190620001d6929190620002cc565b508160109080519060200190620001ef929190620002cc565b50806011908051906020019062000208929190620002cc565b5062000221635b5e139f60e01b6200022a60201b60201c565b5050506200037b565b63ffffffff60e01b817bffffffffffffffffffffffffffffffffffffffffffffffffffffffff1916141515156200026057600080fd5b6001806000837bffffffffffffffffffffffffffffffffffffffffffffffffffffffff19167bffffffffffffffffffffffffffffffffffffffffffffffffffffffff1916815260200190815260200160002060006101000a81548160ff02191690831515021790555050565b828054600181600116156101000203166002900490600052602060002090601f016020900481019282601f106200030f57805160ff191683800117855562000340565b8280016001018555821562000340579182015b828111156200033f57825182559160200191906001019062000322565b5b5090506200034f919062000353565b5090565b6200037891905b80821115620003745760008160009055506001016200035a565b5090565b90565b612c40806200038b6000396000f3fe608060405234801561001057600080fd5b506004361061014d5760003560e01c806342842e0e116100c3578063a22cb4651161007c578063a22cb465146108de578063b88d4fde1461092e578063c87b56dd14610a33578063d547cfb714610ada578063e985e9c514610b5d578063f2fde38b14610bd95761014d565b806342842e0e1461069b5780634f6ccce7146107095780636352211e1461074b57806370a08231146107b95780638da5cb5b1461081157806395d89b411461085b5761014d565b806318160ddd1161011557806318160ddd1461032657806323b872dd1461034457806327dc297e146103b25780632f745c591461047757806338bbfa50146104d957806340c10f19146106355761014d565b806301ffc9a71461015257806306fdde03146101b7578063081812fc1461023a578063095ea7b3146102a857806316c38b3c146102f6575b600080fd5b61019d6004803603602081101561016857600080fd5b8101908080357bffffffffffffffffffffffffffffffffffffffffffffffffffffffff19169060200190929190505050610c1d565b604051808215151515815260200191505060405180910390f35b6101bf610c85565b6040518080602001828103825283818151815260200191508051906020019080838360005b838110156101ff5780820151818401526020810190506101e4565b50505050905090810190601f16801561022c5780820380516001836020036101000a031916815260200191505b509250505060405180910390f35b6102666004803603602081101561025057600080fd5b8101908080359060200190929190505050610d27565b604051808273ffffffffffffffffffffffffffffffffffffffff1673ffffffffffffffffffffffffffffffffffffffff16815260200191505060405180910390f35b6102f4600480360360408110156102be57600080fd5b81019080803573ffffffffffffffffffffffffffffffffffffffff16906020019092919080359060200190929190505050610d64565b005b6103246004803603602081101561030c57600080fd5b81019080803515159060200190929190505050610f0b565b005b61032e6110a1565b6040518082815260200191505060405180910390f35b6103b06004803603606081101561035a57600080fd5b81019080803573ffffffffffffffffffffffffffffffffffffffff169060200190929190803573ffffffffffffffffffffffffffffffffffffffff169060200190929190803590602001909291905050506110ae565b005b610475600480360360408110156103c857600080fd5b8101908080359060200190929190803590602001906401000000008111156103ef57600080fd5b82018360208201111561040157600080fd5b8035906020019184600183028401116401000000008311171561042357600080fd5b91908080601f016020809104026020016040519081016040528093929190818152602001838380828437600081840152601f19601f8201169050808301925050505050505091929192905050506110d3565b005b6104c36004803603604081101561048d57600080fd5b81019080803573ffffffffffffffffffffffffffffffffffffffff16906020019092919080359060200190929190505050611116565b6040518082815260200191505060405180910390f35b610633600480360360608110156104ef57600080fd5b81019080803590602001909291908035906020019064010000000081111561051657600080fd5b82018360208201111561052857600080fd5b8035906020019184600183028401116401000000008311171561054a57600080fd5b91908080601f016020809104026020016040519081016040528093929190818152602001838380828437600081840152601f19601f820116905080830192505050505050509192919290803590602001906401000000008111156105ad57600080fd5b8201836020820111156105bf57600080fd5b803590602001918460018302840111640100000000831117156105e157600080fd5b91908080601f016020809104026020016040519081016040528093929190818152602001838380828437600081840152601f19601f82011690508083019250505050505050919291929050505061118d565b005b6106816004803603604081101561064b57600080fd5b81019080803573ffffffffffffffffffffffffffffffffffffffff16906020019092919080359060200190929190505050611192565b604051808215151515815260200191505060405180910390f35b610707600480360360608110156106b157600080fd5b81019080803573ffffffffffffffffffffffffffffffffffffffff169060200190929190803573ffffffffffffffffffffffffffffffffffffffff16906020019092919080359060200190929190505050611258565b005b6107356004803603602081101561071f57600080fd5b8101908080359060200190929190505050611278565b6040518082815260200191505060405180910390f35b6107776004803603602081101561076157600080fd5b81019080803590602001909291905050506112b0565b604051808273ffffffffffffffffffffffffffffffffffffffff1673ffffffffffffffffffffffffffffffffffffffff16815260200191505060405180910390f35b6107fb600480360360208110156107cf57600080fd5b81019080803573ffffffffffffffffffffffffffffffffffffffff1690602001909291905050506112ed565b6040518082815260200191505060405180910390f35b61081961133d565b604051808273ffffffffffffffffffffffffffffffffffffffff1673ffffffffffffffffffffffffffffffffffffffff16815260200191505060405180910390f35b610863611366565b6040518080602001828103825283818151815260200191508051906020019080838360005b838110156108a3578082015181840152602081019050610888565b50505050905090810190601f1680156108d05780820380516001836020036101000a031916815260200191505b509250505060405180910390f35b61092c600480360360408110156108f457600080fd5b81019080803573ffffffffffffffffffffffffffffffffffffffff169060200190929190803515159060200190929190505050611408565b005b610a316004803603608081101561094457600080fd5b81019080803573ffffffffffffffffffffffffffffffffffffffff169060200190929190803573ffffffffffffffffffffffffffffffffffffffff16906020019092919080359060200190929190803590602001906401000000008111156109ab57600080fd5b8201836020820111156109bd57600080fd5b803590602001918460018302840111640100000000831117156109df57600080fd5b91908080601f016020809104026020016040519081016040528093929190818152602001838380828437600081840152601f19601f820116905080830192505050505050509192919290505050611544565b005b610a5f60048036036020811015610a4957600080fd5b810190808035906020019092919050505061156c565b6040518080602001828103825283818151815260200191508051906020019080838360005b83811015610a9f578082015181840152602081019050610a84565b50505050905090810190601f168015610acc5780820380516001836020036101000a031916815260200191505b509250505060405180910390f35b610ae2611635565b6040518080602001828103825283818151815260200191508051906020019080838360005b83811015610b22578082015181840152602081019050610b07565b50505050905090810190601f168015610b4f5780820380516001836020036101000a031916815260200191505b509250505060405180910390f35b610bbf60048036036040811015610b7357600080fd5b81019080803573ffffffffffffffffffffffffffffffffffffffff169060200190929190803573ffffffffffffffffffffffffffffffffffffffff1690602001909291905050506116d7565b604051808215151515815260200191505060405180910390f35b610c1b60048036036020811015610bef57600080fd5b81019080803573ffffffffffffffffffffffffffffffffffffffff16906020019092919050505061176b565b005b600060016000837bffffffffffffffffffffffffffffffffffffffffffffffffffffffff19167bffffffffffffffffffffffffffffffffffffffffffffffffffffffff1916815260200190815260200160002060009054906101000a900460ff169050919050565b6060600f8054600181600116156101000203166002900480601f016020809104026020016040519081016040528092919081815260200182805460018160011615610100020316600290048015610d1d5780601f10610cf257610100808354040283529160200191610d1d565b820191906000526020600020905b815481529060010190602001808311610d0057829003601f168201915b5050505050905090565b60006003600083815260200190815260200160002060009054906101000a900473ffffffffffffffffffffffffffffffffffffffff169050919050565b6000610d6f826112b0565b90508073ffffffffffffffffffffffffffffffffffffffff168373ffffffffffffffffffffffffffffffffffffffff1614151515610df8576040517f08c379a0000000000000000000000000000000000000000000000000000000008152600401808060200182810382526021815260200180612bd16021913960400191505060405180910390fd5b610e023383611963565b1515610e59576040517f08c379a000000000000000000000000000000000000000000000000000000000815260040180806020018281038252602a815260200180612b86602a913960400191505060405180910390fd5b826003600084815260200190815260200160002060006101000a81548173ffffffffffffffffffffffffffffffffffffffff021916908373ffffffffffffffffffffffffffffffffffffffff160217905550818373ffffffffffffffffffffffffffffffffffffffff168273ffffffffffffffffffffffffffffffffffffffff167f8c5be1e5ebec7d5bd14f71427d1e84f3dd0314c0f7b2291e5b200ac8c7c3b92560405160405180910390a4505050565b6000809054906101000a900473ffffffffffffffffffffffffffffffffffffffff1673ffffffffffffffffffffffffffffffffffffffff163373ffffffffffffffffffffffffffffffffffffffff16141515610fb2576040517f08c379a0000000000000000000000000000000000000000000000000000000008152600401808060200182810382526023815260200180612bf26023913960400191505060405180910390fd5b80600060146101000a81548160ff021916908315150217905550801561103a577f62e78cea01bee320cd4e420270b5ea74000d11b0c9f74754ebdbfc544b05a25833604051808273ffffffffffffffffffffffffffffffffffffffff1673ffffffffffffffffffffffffffffffffffffffff16815260200191505060405180910390a161109e565b7f5db9ee0a495bf2e6ff9c91a7834c1ba4fdd244a5e8aa4e537bd38aeae4b073aa33604051808273ffffffffffffffffffffffffffffffffffffffff1673ffffffffffffffffffffffffffffffffffffffff16815260200191505060405180910390a15b50565b6000600880549050905090565b6110b83382611963565b15156110c357600080fd5b6110ce8383836119f8565b505050565b611112828260006040519080825280601f01601f19166020018201604052801561110c5781602001600182028038833980820191505090505b5061118d565b5050565b6000611121836112ed565b8210151561112e57600080fd5b600660008473ffffffffffffffffffffffffffffffffffffffff1673ffffffffffffffffffffffffffffffffffffffff1681526020019081526020016000208281548110151561117a57fe5b9060005260206000200154905092915050565b505050565b60008060009054906101000a900473ffffffffffffffffffffffffffffffffffffffff1673ffffffffffffffffffffffffffffffffffffffff163373ffffffffffffffffffffffffffffffffffffffff1614151561123b576040517f08c379a0000000000000000000000000000000000000000000000000000000008152600401808060200182810382526023815260200180612bf26023913960400191505060405180910390fd5b6112458383611a1c565b61124e82611a3d565b6001905092915050565b61127383838360405180602001604052806000815250611544565b505050565b60006112826110a1565b8210151561128f57600080fd5b60088281548110151561129e57fe5b90600052602060002001549050919050565b60006002600083815260200190815260200160002060009054906101000a900473ffffffffffffffffffffffffffffffffffffffff169050919050565b6000611336600460008473ffffffffffffffffffffffffffffffffffffffff1673ffffffffffffffffffffffffffffffffffffffff168152602001908152602001600020611b90565b9050919050565b60008060009054906101000a900473ffffffffffffffffffffffffffffffffffffffff16905090565b606060108054600181600116156101000203166002900480601f0160208091040260200160405190810160405280929190818152602001828054600181600116156101000203166002900480156113fe5780601f106113d3576101008083540402835291602001916113fe565b820191906000526020600020905b8154815290600101906020018083116113e157829003601f168201915b5050505050905090565b3373ffffffffffffffffffffffffffffffffffffffff168273ffffffffffffffffffffffffffffffffffffffff161415151561144357600080fd5b80600560003373ffffffffffffffffffffffffffffffffffffffff1673ffffffffffffffffffffffffffffffffffffffff16815260200190815260200160002060008473ffffffffffffffffffffffffffffffffffffffff1673ffffffffffffffffffffffffffffffffffffffff16815260200190815260200160002060006101000a81548160ff0219169083151502179055508173ffffffffffffffffffffffffffffffffffffffff163373ffffffffffffffffffffffffffffffffffffffff167f17307eab39ab6107e8899845ad3d59bd9653f200f220920489ca2b5937696c3183604051808215151515815260200191505060405180910390a35050565b61154f8484846110ae565b61155b84848484611b9e565b151561156657600080fd5b50505050565b606061157782611d89565b151561158257600080fd5b601260008381526020019081526020016000208054600181600116156101000203166002900480601f0160208091040260200160405190810160405280929190818152602001828054600181600116156101000203166002900480156116295780601f106115fe57610100808354040283529160200191611629565b820191906000526020600020905b81548152906001019060200180831161160c57829003601f168201915b50505050509050919050565b606060118054600181600116156101000203166002900480601f0160208091040260200160405190810160405280929190818152602001828054600181600116156101000203166002900480156116cd5780601f106116a2576101008083540402835291602001916116cd565b820191906000526020600020905b8154815290600101906020018083116116b057829003601f168201915b5050505050905090565b6000600560008473ffffffffffffffffffffffffffffffffffffffff1673ffffffffffffffffffffffffffffffffffffffff16815260200190815260200160002060008373ffffffffffffffffffffffffffffffffffffffff1673ffffffffffffffffffffffffffffffffffffffff16815260200190815260200160002060009054906101000a900460ff16905092915050565b6000809054906101000a900473ffffffffffffffffffffffffffffffffffffffff1673ffffffffffffffffffffffffffffffffffffffff163373ffffffffffffffffffffffffffffffffffffffff16141515611812576040517f08c379a0000000000000000000000000000000000000000000000000000000008152600401808060200182810382526023815260200180612bf26023913960400191505060405180910390fd5b80600073ffffffffffffffffffffffffffffffffffffffff168173ffffffffffffffffffffffffffffffffffffffff161415151561189b576040517f08c379a0000000000000000000000000000000000000000000000000000000008152600401808060200182810382526023815260200180612bf26023913960400191505060405180910390fd5b816000806101000a81548173ffffffffffffffffffffffffffffffffffffffff021916908373ffffffffffffffffffffffffffffffffffffffff1602179055507f9736aeb40a8f30a5c076a9897428fdf7ec0e909c96dce63533664c9b5c835da66000809054906101000a900473ffffffffffffffffffffffffffffffffffffffff16604051808273ffffffffffffffffffffffffffffffffffffffff1673ffffffffffffffffffffffffffffffffffffffff16815260200191505060405180910390a15050565b60008061196f836112b0565b90508073ffffffffffffffffffffffffffffffffffffffff168473ffffffffffffffffffffffffffffffffffffffff1614806119de57508373ffffffffffffffffffffffffffffffffffffffff166119c684610d27565b73ffffffffffffffffffffffffffffffffffffffff16145b806119ef57506119ee81856116d7565b5b91505092915050565b611a03838383611dfb565b611a0d8382611fd8565b611a17828261217c565b505050565b611a268282612243565b611a30828261217c565b611a39816123ba565b5050565b611a4681611d89565b1515611aba576040517f08c379a00000000000000000000000000000000000000000000000000000000081526004018080602001828103825260158152602001807f546f6b656e494420646f65736e2774206578697374000000000000000000000081525060200191505060405180910390fd5b611b6660118054600181600116156101000203166002900480601f016020809104026020016040519081016040528092919081815260200182805460018160011615610100020316600290048015611b535780601f10611b2857610100808354040283529160200191611b53565b820191906000526020600020905b815481529060010190602001808311611b3657829003601f168201915b5050505050611b6183612406565b612540565b601260008381526020019081526020016000209080519060200190611b8c929190612ab4565b5050565b600081600001549050919050565b6000611bbf8473ffffffffffffffffffffffffffffffffffffffff16612584565b1515611bce5760019050611d81565b60008473ffffffffffffffffffffffffffffffffffffffff1663150b7a02338887876040518563ffffffff1660e01b8152600401808573ffffffffffffffffffffffffffffffffffffffff1673ffffffffffffffffffffffffffffffffffffffff1681526020018473ffffffffffffffffffffffffffffffffffffffff1673ffffffffffffffffffffffffffffffffffffffff16815260200183815260200180602001828103825283818151815260200191508051906020019080838360005b83811015611ca9578082015181840152602081019050611c8e565b50505050905090810190601f168015611cd65780820380516001836020036101000a031916815260200191505b5095505050505050602060405180830381600087803b158015611cf857600080fd5b505af1158015611d0c573d6000803e3d6000fd5b505050506040513d6020811015611d2257600080fd5b8101908080519060200190929190505050905063150b7a0260e01b7bffffffffffffffffffffffffffffffffffffffffffffffffffffffff1916817bffffffffffffffffffffffffffffffffffffffffffffffffffffffff1916149150505b949350505050565b6000806002600084815260200190815260200160002060009054906101000a900473ffffffffffffffffffffffffffffffffffffffff169050600073ffffffffffffffffffffffffffffffffffffffff168173ffffffffffffffffffffffffffffffffffffffff161415915050919050565b6000611e06826112b0565b90508073ffffffffffffffffffffffffffffffffffffffff168473ffffffffffffffffffffffffffffffffffffffff16141515611e8e576040517f08c379a0000000000000000000000000000000000000000000000000000000008152600401808060200182810382526021815260200180612bb06021913960400191505060405180910390fd5b611e97826125cf565b611ede600460008673ffffffffffffffffffffffffffffffffffffffff1673ffffffffffffffffffffffffffffffffffffffff16815260200190815260200160002061268f565b611f25600460008573ffffffffffffffffffffffffffffffffffffffff1673ffffffffffffffffffffffffffffffffffffffff1681526020019081526020016000206126b2565b826002600084815260200190815260200160002060006101000a81548173ffffffffffffffffffffffffffffffffffffffff021916908373ffffffffffffffffffffffffffffffffffffffff160217905550818373ffffffffffffffffffffffffffffffffffffffff168573ffffffffffffffffffffffffffffffffffffffff167fddf252ad1be2c89b69c2b068fc378daa952ba7f163c4a11628f55a4df523b3ef60405160405180910390a450505050565b60006120306001600660008673ffffffffffffffffffffffffffffffffffffffff1673ffffffffffffffffffffffffffffffffffffffff168152602001908152602001600020805490506126c890919063ffffffff16565b90506000600760008481526020019081526020016000205490508181141515612123576000600660008673ffffffffffffffffffffffffffffffffffffffff1673ffffffffffffffffffffffffffffffffffffffff168152602001908152602001600020838154811015156120a157fe5b9060005260206000200154905080600660008773ffffffffffffffffffffffffffffffffffffffff1673ffffffffffffffffffffffffffffffffffffffff168152602001908152602001600020838154811015156120fb57fe5b9060005260206000200181905550816007600083815260200190815260200160002081905550505b600660008573ffffffffffffffffffffffffffffffffffffffff1673ffffffffffffffffffffffffffffffffffffffff1681526020019081526020016000208054809190600190036121759190612b34565b5050505050565b600660008373ffffffffffffffffffffffffffffffffffffffff1673ffffffffffffffffffffffffffffffffffffffff168152602001908152602001600020805490506007600083815260200190815260200160002081905550600660008373ffffffffffffffffffffffffffffffffffffffff1673ffffffffffffffffffffffffffffffffffffffff1681526020019081526020016000208190806001815401808255809150509060018203906000526020600020016000909192909190915055505050565b61224c81611d89565b1515156122c1576040517f08c379a00000000000000000000000000000000000000000000000000000000081526004018080602001828103825260158152602001807f546f6b656e20616c72656164792065786973747321000000000000000000000081525060200191505060405180910390fd5b816002600083815260200190815260200160002060006101000a81548173ffffffffffffffffffffffffffffffffffffffff021916908373ffffffffffffffffffffffffffffffffffffffff16021790555061235a600460008473ffffffffffffffffffffffffffffffffffffffff1673ffffffffffffffffffffffffffffffffffffffff1681526020019081526020016000206126b2565b808273ffffffffffffffffffffffffffffffffffffffff16600073ffffffffffffffffffffffffffffffffffffffff167fddf252ad1be2c89b69c2b068fc378daa952ba7f163c4a11628f55a4df523b3ef60405160405180910390a45050565b6008805490506009600083815260200190815260200160002081905550600881908060018154018082558091505090600182039060005260206000200160009091929091909150555050565b6060600082141561244e576040518060400160405280600181526020017f3000000000000000000000000000000000000000000000000000000000000000815250905061253b565b600082905060005b60008214151561247c578080600101915050600a8281151561247457fe5b049150612456565b6060816040519080825280601f01601f1916602001820160405280156124b15781602001600182028038833980820191505090505b50905060006001830390505b60008614151561253357600a868115156124d357fe5b0660300160f81b8282806001900393508151811015156124ef57fe5b9060200101907effffffffffffffffffffffffffffffffffffffffffffffffffffffffffffff1916908160001a905350600a8681151561252b57fe5b0495506124bd565b819450505050505b919050565b606061257c8383604051806020016040528060008152506040518060200160405280600081525060405180602001604052806000815250612712565b905092915050565b60008060007fc5d2460186f7233c927e7db2dcc703c0e500b653ca82273b7bfad8045d85a47060001b9050833f91508082141580156125c657506000801b8214155b92505050919050565b600073ffffffffffffffffffffffffffffffffffffffff166003600083815260200190815260200160002060009054906101000a900473ffffffffffffffffffffffffffffffffffffffff1673ffffffffffffffffffffffffffffffffffffffff1614151561268c5760006003600083815260200190815260200160002060006101000a81548173ffffffffffffffffffffffffffffffffffffffff021916908373ffffffffffffffffffffffffffffffffffffffff1602179055505b50565b6126a7600182600001546126c890919063ffffffff16565b816000018190555050565b6001816000016000828254019250508190555050565b600061270a83836040518060400160405280601e81526020017f536166654d6174683a207375627472616374696f6e206f766572666c6f7700008152506129f2565b905092915050565b6060808690506060869050606086905060608690506060869050606081518351855187518951010101016040519080825280601f01601f19166020018201604052801561276e5781602001600182028038833980820191505090505b509050606081905060008090506000809050600090505b88518110156127f957888181518110151561279c57fe5b90602001015160f81c60f81b83838060010194508151811015156127bc57fe5b9060200101907effffffffffffffffffffffffffffffffffffffffffffffffffffffffffffff1916908160001a9053508080600101915050612785565b600090505b875181101561287257878181518110151561281557fe5b90602001015160f81c60f81b838380600101945081518110151561283557fe5b9060200101907effffffffffffffffffffffffffffffffffffffffffffffffffffffffffffff1916908160001a90535080806001019150506127fe565b600090505b86518110156128eb57868181518110151561288e57fe5b90602001015160f81c60f81b83838060010194508151811015156128ae57fe5b9060200101907effffffffffffffffffffffffffffffffffffffffffffffffffffffffffffff1916908160001a9053508080600101915050612877565b600090505b855181101561296457858181518110151561290757fe5b90602001015160f81c60f81b838380600101945081518110151561292757fe5b9060200101907effffffffffffffffffffffffffffffffffffffffffffffffffffffffffffff1916908160001a90535080806001019150506128f0565b600090505b84518110156129dd57848181518110151561298057fe5b90602001015160f81c60f81b83838060010194508151811015156129a057fe5b9060200101907effffffffffffffffffffffffffffffffffffffffffffffffffffffffffffff1916908160001a9053508080600101915050612969565b82995050505050505050505095945050505050565b60008383111582901515612aa1576040517f08c379a00000000000000000000000000000000000000000000000000000000081526004018080602001828103825283818151815260200191508051906020019080838360005b83811015612a66578082015181840152602081019050612a4b565b50505050905090810190601f168015612a935780820380516001836020036101000a031916815260200191505b509250505060405180910390fd5b5060008385039050809150509392505050565b828054600181600116156101000203166002900490600052602060002090601f016020900481019282601f10612af557805160ff1916838001178555612b23565b82800160010185558215612b23579182015b82811115612b22578251825591602001919060010190612b07565b5b509050612b309190612b60565b5090565b815481835581811115612b5b57818360005260206000209182019101612b5a9190612b60565b5b505050565b612b8291905b80821115612b7e576000816000905550600101612b66565b5090565b9056fe546869732066756e6374696f6e2068617320746f20626520617070726f766564206f72206f776e65722146726f6d2061646472657373206973206e6f74206f776e657220616472657373214e6577206f776e65722063616e27742062652063757272656e74206f776e6572214f6e6c79206f776e65722063616e20706572666f726d207468697320616374696f6e21a165627a7a72305820f9b473d5f0d5ccc5ab3d3756507562b9890854734f33ac98b2ca297473638b85002968747470733a2f2f73332d75732d776573742d322e616d617a6f6e6177732e636f6d2f756461636974792d626c6f636b636861696e2f63617073746f6e652f",
  "source": "pragma solidity >=0.5.0 <=0.8.17;\n\nimport 'openzeppelin-solidity/contracts/utils/Address.sol';\nimport 'openzeppelin-solidity/contracts/drafts/Counters.sol';\nimport 'openzeppelin-solidity/contracts/math/SafeMath.sol';\nimport 'openzeppelin-solidity/contracts/token/ERC721/IERC721Receiver.sol';\nimport \"./Oraclize.sol\";\n\n// ...\ncontract Ownable {\n\n    //  1) create a private '_owner' variable of type address with a public getter function\n    address private _owner;\n\n    function owner() external view returns(address) {\n        return _owner;\n    }\n\n    //  2) create an internal constructor that sets the _owner var to the creater of the contract \n    constructor() internal {\n        _owner = msg.sender;\n        emit OwnershipTransfered(_owner);\n    }\n\n    //  3) create an 'onlyOwner' modifier that throws if called by any account other than the owner.\n    modifier onlyOwner() {\n        require(msg.sender == _owner, 'Only owner can perform this action!');\n        _;\n    }\n\n    modifier isValidAddress(address to) {\n        require(to != address(0), 'Only owner can perform this action!');\n        _;\n    }\n\n    //  4) fill out the transferOwnership function\n    function transferOwnership(address newOwner) public onlyOwner isValidAddress(newOwner) {\n        // TODO add functionality to transfer control of the contract to a newOwner.\n        // make sure the new owner is a real address\n        _owner = newOwner;\n        emit OwnershipTransfered(_owner);\n    }\n\n    //  5) create an event that emits anytime ownerShip is transfered (including in the constructor)\n    event OwnershipTransfered(address newOwner);\n\n}\n\n//  TODO's: Create a Pausable contract that inherits from the Ownable contract\n// ...\ncontract Pausable is Ownable {\n\n    //  1) create a private '_paused' variable of type bool\n    bool private _paused;\n\n    //  2) create a public setter using the inherited onlyOwner modifier \n    function setPaused(bool paused) public onlyOwner {\n        _paused = paused;\n        if (paused) {\n            emit Paused(msg.sender);\n        } else {\n            emit Unpaused(msg.sender);\n        }\n    }\n\n    //  3) create an internal constructor that sets the _paused variable to false\n    constructor() internal {\n        _paused = false;\n    }\n\n    //  4) create 'whenNotPaused' & 'paused' modifier that throws in the appropriate situation\n    modifier whenNotPaused() {\n        require(_paused == false, 'Contract must be in paused state!');\n        _;\n    }\n\n    modifier paused() {\n        require(_paused == true, 'Contract must be in unpaused state!');\n        _;\n    }\n\n    //  5) create a Paused & Unpaused event that emits the address that triggered the event\n    event Paused(address account);\n    event Unpaused(address account);\n}\n\ncontract ERC165 {\n    bytes4 private constant _INTERFACE_ID_ERC165 = 0x01ffc9a7;\n    /*\n     * 0x01ffc9a7 ===\n     *     bytes4(keccak256('supportsInterface(bytes4)'))\n     */\n\n    /**\n     * @dev a mapping of interface id to whether or not it's supported\n     */\n    mapping(bytes4 => bool) private _supportedInterfaces;\n\n    /**\n     * @dev A contract implementing SupportsInterfaceWithLookup\n     * implement ERC165 itself\n     */\n    constructor () internal {\n        _registerInterface(_INTERFACE_ID_ERC165);\n    }\n\n    /**\n     * @dev implement supportsInterface(bytes4) using a lookup table\n     */\n    function supportsInterface(bytes4 interfaceId) external view returns (bool) {\n        return _supportedInterfaces[interfaceId];\n    }\n\n    /**\n     * @dev internal method for registering an interface\n     */\n    function _registerInterface(bytes4 interfaceId) internal {\n        require(interfaceId != 0xffffffff);\n        _supportedInterfaces[interfaceId] = true;\n    }\n}\n\ncontract ERC721 is Pausable, ERC165 {\n\n    event Transfer(address indexed from, address indexed to, uint256 indexed tokenId);\n\n    event Approval(address indexed owner, address indexed approved, uint256 indexed tokenId);\n\n    event ApprovalForAll(address indexed owner, address indexed operator, bool approved);\n\n    using SafeMath for uint256;\n    using Address for address;\n    using Counters for Counters.Counter;\n\n    // Equals to `bytes4(keccak256(\"onERC721Received(address,address,uint256,bytes)\"))`\n    // which can be also obtained as `IERC721Receiver(0).onERC721Received.selector`\n    bytes4 private constant _ERC721_RECEIVED = 0x150b7a02;\n\n    // Mapping from token ID to owner\n    mapping (uint256 => address) private _tokenOwner;\n\n    // Mapping from token ID to approved address\n    mapping (uint256 => address) private _tokenApprovals;\n\n    // Mapping from owner to number of owned token\n    // IMPORTANT: this mapping uses Counters lib which is used to protect overflow when incrementing/decrementing a uint\n    // use the following functions when interacting with Counters: increment(), decrement(), and current() to get the value\n    // see: https://github.com/OpenZeppelin/openzeppelin-solidity/blob/master/contracts/drafts/Counters.sol\n    mapping (address => Counters.Counter) private _ownedTokensCount;\n\n    // Mapping from owner to operator approvals\n    mapping (address => mapping (address => bool)) private _operatorApprovals;\n\n    bytes4 private constant _INTERFACE_ID_ERC721 = 0x80ac58cd;\n\n    constructor () public {\n        // register the supported interfaces to conform to ERC721 via ERC165\n        _registerInterface(_INTERFACE_ID_ERC721);\n    }\n\n    function balanceOf(address owner) public view returns (uint256) {\n        // TODO return the token balance of given address\n        // TIP: remember the functions to use for Counters. you can refresh yourself with the link above\n        return _ownedTokensCount[owner].current();\n    }\n\n    function ownerOf(uint256 tokenId) public view returns (address) {\n        // TODO return the owner of the given tokenId\n        return _tokenOwner[tokenId];\n    }\n\n//    @dev Approves another address to transfer the given token ID\n    function approve(address to, uint256 tokenId) public {\n        address owner = ownerOf(tokenId);\n        // TODO require the given address to not be the owner of the tokenId\n        require(to != owner, \"New owner can't be current owner!\");\n        // TODO require the msg sender to be the owner of the contract or isApprovedForAll() to be true\n        require(_isApprovedOrOwner(msg.sender, tokenId), 'This function has to be approved or owner!');\n        // TODO add 'to' address to token approvals\n        _tokenApprovals[tokenId] = to;\n        // TODO emit Approval Event\n        emit Approval(owner, to, tokenId);\n    }\n\n    function getApproved(uint256 tokenId) public view returns (address) {\n        // TODO return token approval if it exists\n        return _tokenApprovals[tokenId];\n    }\n\n    /**\n     * @dev Sets or unsets the approval of a given operator\n     * An operator is allowed to transfer all tokens of the sender on their behalf\n     * @param to operator address to set the approval\n     * @param approved representing the status of the approval to be set\n     */\n    function setApprovalForAll(address to, bool approved) public {\n        require(to != msg.sender);\n        _operatorApprovals[msg.sender][to] = approved;\n        emit ApprovalForAll(msg.sender, to, approved);\n    }\n\n    /**\n     * @dev Tells whether an operator is approved by a given owner\n     * @param owner owner address which you want to query the approval of\n     * @param operator operator address which you want to query the approval of\n     * @return bool whether the given operator is approved by the given owner\n     */\n    function isApprovedForAll(address owner, address operator) public view returns (bool) {\n        return _operatorApprovals[owner][operator];\n    }\n\n    function transferFrom(address from, address to, uint256 tokenId) public {\n        require(_isApprovedOrOwner(msg.sender, tokenId));\n\n        _transferFrom(from, to, tokenId);\n    }\n\n    function safeTransferFrom(address from, address to, uint256 tokenId) public {\n        safeTransferFrom(from, to, tokenId, \"\");\n    }\n\n    function safeTransferFrom(address from, address to, uint256 tokenId, bytes memory _data) public {\n        transferFrom(from, to, tokenId);\n        require(_checkOnERC721Received(from, to, tokenId, _data));\n    }\n\n    /**\n     * @dev Returns whether the specified token exists\n     * @param tokenId uint256 ID of the token to query the existence of\n     * @return bool whether the token exists\n     */\n    function _exists(uint256 tokenId) internal view returns (bool) {\n        address owner = _tokenOwner[tokenId];\n        return owner != address(0);\n    }\n\n    /**\n     * @dev Returns whether the given spender can transfer a given token ID\n     * @param spender address of the spender to query\n     * @param tokenId uint256 ID of the token to be transferred\n     * @return bool whether the msg.sender is approved for the given token ID,\n     * is an operator of the owner, or is the owner of the token\n     */\n    function _isApprovedOrOwner(address spender, uint256 tokenId) internal view returns (bool) {\n        address owner = ownerOf(tokenId);\n        return (spender == owner || getApproved(tokenId) == spender || isApprovedForAll(owner, spender));\n    }\n\n    // @dev Internal function to mint a new token\n    // TIP: remember the functions to use for Counters. you can refresh yourself with the link above\n    function _mint(address to, uint256 tokenId) internal {\n\n        // TODO revert if given tokenId already exists or given address is invalid\n        require(!_exists(tokenId), 'Token already exists!');\n\n        // TODO mint tokenId to given address & increase token count of owner\n        _tokenOwner[tokenId] = to;\n        _ownedTokensCount[to].increment();\n\n        // TODO emit Transfer event\n        emit Transfer(address(0), to, tokenId);\n    }\n\n    // @dev Internal function to transfer ownership of a given token ID to another address.\n    // TIP: remember the functions to use for Counters. you can refresh yourself with the link above\n    function _transferFrom(address from, address to, uint256 tokenId) internal {\n\n        // TODO: require from address is the owner of the given token\n        address owner = ownerOf(tokenId);\n        require(from == owner, 'From address is not owner adress!');\n\n        // TODO: require token is being transfered to valid address\n\n\n        // TODO: clear approval\n        _clearApproval(tokenId);\n\n        // TODO: update token counts & transfer ownership of the token ID \n        _ownedTokensCount[from].decrement();\n        _ownedTokensCount[to].increment();\n        _tokenOwner[tokenId] = to;\n\n        // TODO: emit correct event\n        emit Transfer(from, to, tokenId);\n    }\n\n    /**\n     * @dev Internal function to invoke `onERC721Received` on a target address\n     * The call is not executed if the target address is not a contract\n     * @param from address representing the previous owner of the given token ID\n     * @param to target address that will receive the tokens\n     * @param tokenId uint256 ID of the token to be transferred\n     * @param _data bytes optional data to send along with the call\n     * @return bool whether the call correctly returned the expected magic value\n     */\n    function _checkOnERC721Received(address from, address to, uint256 tokenId, bytes memory _data)\n        internal returns (bool)\n    {\n        if (!to.isContract()) {\n            return true;\n        }\n\n        bytes4 retval = IERC721Receiver(to).onERC721Received(msg.sender, from, tokenId, _data);\n        return (retval == _ERC721_RECEIVED);\n    }\n\n    // @dev Private function to clear current approval of a given token ID\n    function _clearApproval(uint256 tokenId) private {\n        if (_tokenApprovals[tokenId] != address(0)) {\n            _tokenApprovals[tokenId] = address(0);\n        }\n    }\n}\n\ncontract ERC721Enumerable is ERC165, ERC721 {\n    // Mapping from owner to list of owned token IDs\n    mapping(address => uint256[]) private _ownedTokens;\n\n    // Mapping from token ID to index of the owner tokens list\n    mapping(uint256 => uint256) private _ownedTokensIndex;\n\n    // Array with all token ids, used for enumeration\n    uint256[] private _allTokens;\n\n    // Mapping from token id to position in the allTokens array\n    mapping(uint256 => uint256) private _allTokensIndex;\n\n    bytes4 private constant _INTERFACE_ID_ERC721_ENUMERABLE = 0x780e9d63;\n    /*\n     * 0x780e9d63 ===\n     *     bytes4(keccak256('totalSupply()')) ^\n     *     bytes4(keccak256('tokenOfOwnerByIndex(address,uint256)')) ^\n     *     bytes4(keccak256('tokenByIndex(uint256)'))\n     */\n\n    /**\n     * @dev Constructor function\n     */\n    constructor () public {\n        // register the supported interface to conform to ERC721Enumerable via ERC165\n        _registerInterface(_INTERFACE_ID_ERC721_ENUMERABLE);\n    }\n\n    /**\n     * @dev Gets the token ID at a given index of the tokens list of the requested owner\n     * @param owner address owning the tokens list to be accessed\n     * @param index uint256 representing the index to be accessed of the requested tokens list\n     * @return uint256 token ID at the given index of the tokens list owned by the requested address\n     */\n    function tokenOfOwnerByIndex(address owner, uint256 index) public view returns (uint256) {\n        require(index < balanceOf(owner));\n        return _ownedTokens[owner][index];\n    }\n\n    /**\n     * @dev Gets the total amount of tokens stored by the contract\n     * @return uint256 representing the total amount of tokens\n     */\n    function totalSupply() public view returns (uint256) {\n        return _allTokens.length;\n    }\n\n    /**\n     * @dev Gets the token ID at a given index of all the tokens in this contract\n     * Reverts if the index is greater or equal to the total number of tokens\n     * @param index uint256 representing the index to be accessed of the tokens list\n     * @return uint256 token ID at the given index of the tokens list\n     */\n    function tokenByIndex(uint256 index) public view returns (uint256) {\n        require(index < totalSupply());\n        return _allTokens[index];\n    }\n\n    /**\n     * @dev Internal function to transfer ownership of a given token ID to another address.\n     * As opposed to transferFrom, this imposes no restrictions on msg.sender.\n     * @param from current owner of the token\n     * @param to address to receive the ownership of the given token ID\n     * @param tokenId uint256 ID of the token to be transferred\n     */\n    function _transferFrom(address from, address to, uint256 tokenId) internal {\n        super._transferFrom(from, to, tokenId);\n\n        _removeTokenFromOwnerEnumeration(from, tokenId);\n\n        _addTokenToOwnerEnumeration(to, tokenId);\n    }\n\n    /**\n     * @dev Internal function to mint a new token\n     * Reverts if the given token ID already exists\n     * @param to address the beneficiary that will own the minted token\n     * @param tokenId uint256 ID of the token to be minted\n     */\n    function _mint(address to, uint256 tokenId) internal {\n        super._mint(to, tokenId);\n\n        _addTokenToOwnerEnumeration(to, tokenId);\n\n        _addTokenToAllTokensEnumeration(tokenId);\n    }\n\n    /**\n     * @dev Gets the list of token IDs of the requested owner\n     * @param owner address owning the tokens\n     * @return uint256[] List of token IDs owned by the requested address\n     */\n    function _tokensOfOwner(address owner) internal view returns (uint256[] storage) {\n        return _ownedTokens[owner];\n    }\n\n    /**\n     * @dev Private function to add a token to this extension's ownership-tracking data structures.\n     * @param to address representing the new owner of the given token ID\n     * @param tokenId uint256 ID of the token to be added to the tokens list of the given address\n     */\n    function _addTokenToOwnerEnumeration(address to, uint256 tokenId) private {\n        _ownedTokensIndex[tokenId] = _ownedTokens[to].length;\n        _ownedTokens[to].push(tokenId);\n    }\n\n    /**\n     * @dev Private function to add a token to this extension's token tracking data structures.\n     * @param tokenId uint256 ID of the token to be added to the tokens list\n     */\n    function _addTokenToAllTokensEnumeration(uint256 tokenId) private {\n        _allTokensIndex[tokenId] = _allTokens.length;\n        _allTokens.push(tokenId);\n    }\n\n    /**\n     * @dev Private function to remove a token from this extension's ownership-tracking data structures. Note that\n     * while the token is not assigned a new owner, the _ownedTokensIndex mapping is _not_ updated: this allows for\n     * gas optimizations e.g. when performing a transfer operation (avoiding double writes).\n     * This has O(1) time complexity, but alters the order of the _ownedTokens array.\n     * @param from address representing the previous owner of the given token ID\n     * @param tokenId uint256 ID of the token to be removed from the tokens list of the given address\n     */\n    function _removeTokenFromOwnerEnumeration(address from, uint256 tokenId) private {\n        // To prevent a gap in from's tokens array, we store the last token in the index of the token to delete, and\n        // then delete the last slot (swap and pop).\n\n        uint256 lastTokenIndex = _ownedTokens[from].length.sub(1);\n        uint256 tokenIndex = _ownedTokensIndex[tokenId];\n\n        // When the token to delete is the last token, the swap operation is unnecessary\n        if (tokenIndex != lastTokenIndex) {\n            uint256 lastTokenId = _ownedTokens[from][lastTokenIndex];\n\n            _ownedTokens[from][tokenIndex] = lastTokenId; // Move the last token to the slot of the to-delete token\n            _ownedTokensIndex[lastTokenId] = tokenIndex; // Update the moved token's index\n        }\n\n        // This also deletes the contents at the last position of the array\n        _ownedTokens[from].length--;\n\n        // Note that _ownedTokensIndex[tokenId] hasn't been cleared: it still points to the old slot (now occupied by\n        // lastTokenId, or just over the end of the array if the token was the last one).\n    }\n\n    /**\n     * @dev Private function to remove a token from this extension's token tracking data structures.\n     * This has O(1) time complexity, but alters the order of the _allTokens array.\n     * @param tokenId uint256 ID of the token to be removed from the tokens list\n     */\n    function _removeTokenFromAllTokensEnumeration(uint256 tokenId) private {\n        // To prevent a gap in the tokens array, we store the last token in the index of the token to delete, and\n        // then delete the last slot (swap and pop).\n\n        uint256 lastTokenIndex = _allTokens.length.sub(1);\n        uint256 tokenIndex = _allTokensIndex[tokenId];\n\n        // When the token to delete is the last token, the swap operation is unnecessary. However, since this occurs so\n        // rarely (when the last minted token is burnt) that we still do the swap here to avoid the gas cost of adding\n        // an 'if' statement (like in _removeTokenFromOwnerEnumeration)\n        uint256 lastTokenId = _allTokens[lastTokenIndex];\n\n        _allTokens[tokenIndex] = lastTokenId; // Move the last token to the slot of the to-delete token\n        _allTokensIndex[lastTokenId] = tokenIndex; // Update the moved token's index\n\n        // This also deletes the contents at the last position of the array\n        _allTokens.length--;\n        _allTokensIndex[tokenId] = 0;\n    }\n}\n\ncontract ERC721Metadata is ERC721Enumerable, usingOraclize {\n\n    // TODO: Create private vars for token _name, _symbol, and _baseTokenURI (string)\n    string private _name;\n    string private _symbol;\n    string private _baseTokenURI;\n\n    // TODO: create private mapping of tokenId's to token uri's called '_tokenURIs'\n    mapping (uint256 => string) private _tokenURIs;\n\n    bytes4 private constant _INTERFACE_ID_ERC721_METADATA = 0x5b5e139f;\n    /*\n     * 0x5b5e139f ===\n     *     bytes4(keccak256('name()')) ^\n     *     bytes4(keccak256('symbol()')) ^\n     *     bytes4(keccak256('tokenURI(uint256)'))\n     */\n\n\n    constructor (string memory name, string memory symbol, string memory baseTokenURI) public {\n        // TODO: set instance var values\n        _name = name;\n        _symbol = symbol;\n        _baseTokenURI = baseTokenURI;\n        _registerInterface(_INTERFACE_ID_ERC721_METADATA);\n    }\n\n    // TODO: create external getter functions for name, symbol, and baseTokenURI\n    function name() external view returns (string memory) {\n        return _name;\n    }\n\n    function symbol() external view returns (string memory) {\n        return _symbol;\n    }\n\n    function baseTokenURI() external view returns (string memory) {\n        return _baseTokenURI;\n    }\n\n    function tokenURI(uint256 tokenId) external view returns (string memory) {\n        require(_exists(tokenId));\n        return _tokenURIs[tokenId];\n    }\n\n\n    // TODO: Create an internal function to set the tokenURI of a specified tokenId\n    // It should be the _baseTokenURI + the tokenId in string form\n    // TIP #1: use strConcat() from the imported oraclizeAPI lib to set the complete token URI\n    // TIP #2: you can also use uint2str() to convert a uint to a string\n        // see https://github.com/oraclize/ethereum-api/blob/master/oraclizeAPI_0.5.sol for strConcat()\n    // require the token exists before setting\n    function setTokenURI(uint256 tokenId) internal {\n        require(_exists(tokenId), \"TokenID doesn't exist\");\n        _tokenURIs[tokenId] = strConcat(_baseTokenURI, uint2str(tokenId));\n    }\n\n}\n\n//  TODO's: Create CustomERC721Token contract that inherits from the ERC721Metadata contract. You can name this contract as you please\ncontract ERC721Mintable is ERC721Metadata {\n\n//  1) Pass in appropriate values for the inherited ERC721Metadata contract\n//      - make the base token uri: https://s3-us-west-2.amazonaws.com/udacity-blockchain/capstone/\n    constructor() ERC721Metadata('RealEstate', 'REAL', 'https://s3-us-west-2.amazonaws.com/udacity-blockchain/capstone/') public {}\n\n//  2) create a public mint() that does the following:\n//      -can only be executed by the contract owner\n//      -takes in a 'to' address, tokenId, and tokenURI as parameters\n//      -returns a true boolean upon completion of the function\n//      -calls the superclass mint and setTokenURI functions\n    function mint(address to, uint256 tokenId) public onlyOwner returns (bool){\n        _mint(to, tokenId);\n        setTokenURI(tokenId);\n        return true;\n    }\n}",
  "sourcePath": "/Users/saschagetzinger/Dev/Blockchain Dev/5_Capstone/Blockchain-Capstone/eth-contracts/contracts/ERC721Mintable.sol",
  "compiler": {
    "name": "solc",
    "version": "0.5.5+commit.47a71e8f.Emscripten.clang"
  },
  "schemaVersion": "3.4.9",
  "updatedAt": "2022-09-29T16:06:18.899Z",
  "networkType": "ethereum",
  "devdoc": {
    "methods": {
      "isApprovedForAll(address,address)": {
        "details": "Tells whether an operator is approved by a given owner",
        "params": {
          "operator": "operator address which you want to query the approval of",
          "owner": "owner address which you want to query the approval of"
        },
        "return": "bool whether the given operator is approved by the given owner"
      },
      "setApprovalForAll(address,bool)": {
        "details": "Sets or unsets the approval of a given operator An operator is allowed to transfer all tokens of the sender on their behalf",
        "params": {
          "approved": "representing the status of the approval to be set",
          "to": "operator address to set the approval"
        }
      },
      "supportsInterface(bytes4)": {
        "details": "implement supportsInterface(bytes4) using a lookup table"
      },
      "tokenByIndex(uint256)": {
        "details": "Gets the token ID at a given index of all the tokens in this contract Reverts if the index is greater or equal to the total number of tokens",
        "params": {
          "index": "uint256 representing the index to be accessed of the tokens list"
        },
        "return": "uint256 token ID at the given index of the tokens list"
      },
      "tokenOfOwnerByIndex(address,uint256)": {
        "details": "Gets the token ID at a given index of the tokens list of the requested owner",
        "params": {
          "index": "uint256 representing the index to be accessed of the requested tokens list",
          "owner": "address owning the tokens list to be accessed"
        },
        "return": "uint256 token ID at the given index of the tokens list owned by the requested address"
      },
      "totalSupply()": {
        "details": "Gets the total amount of tokens stored by the contract",
        "return": "uint256 representing the total amount of tokens"
      }
    }
  },
  "userdoc": {
    "methods": {}
  }
}