{
  "contractName": "SolnSquareVerifier",
  "abi": [
    {
      "constant": true,
      "inputs": [
        {
          "name": "interfaceId",
          "type": "bytes4"
        }
      ],
      "name": "supportsInterface",
      "outputs": [
        {
          "name": "",
          "type": "bool"
        }
      ],
      "payable": false,
      "stateMutability": "view",
      "type": "function"
    },
    {
      "constant": true,
      "inputs": [],
      "name": "name",
      "outputs": [
        {
          "name": "",
          "type": "string"
        }
      ],
      "payable": false,
      "stateMutability": "view",
      "type": "function"
    },
    {
      "constant": true,
      "inputs": [
        {
          "name": "tokenId",
          "type": "uint256"
        }
      ],
      "name": "getApproved",
      "outputs": [
        {
          "name": "",
          "type": "address"
        }
      ],
      "payable": false,
      "stateMutability": "view",
      "type": "function"
    },
    {
      "constant": false,
      "inputs": [
        {
          "name": "to",
          "type": "address"
        },
        {
          "name": "tokenId",
          "type": "uint256"
        }
      ],
      "name": "approve",
      "outputs": [],
      "payable": false,
      "stateMutability": "nonpayable",
      "type": "function"
    },
    {
      "constant": false,
      "inputs": [
        {
          "name": "paused",
          "type": "bool"
        }
      ],
      "name": "setPaused",
      "outputs": [],
      "payable": false,
      "stateMutability": "nonpayable",
      "type": "function"
    },
    {
      "constant": true,
      "inputs": [],
      "name": "totalSupply",
      "outputs": [
        {
          "name": "",
          "type": "uint256"
        }
      ],
      "payable": false,
      "stateMutability": "view",
      "type": "function"
    },
    {
      "constant": false,
      "inputs": [
        {
          "name": "from",
          "type": "address"
        },
        {
          "name": "to",
          "type": "address"
        },
        {
          "name": "tokenId",
          "type": "uint256"
        }
      ],
      "name": "transferFrom",
      "outputs": [],
      "payable": false,
      "stateMutability": "nonpayable",
      "type": "function"
    },
    {
      "constant": false,
      "inputs": [
        {
          "name": "_myid",
          "type": "bytes32"
        },
        {
          "name": "_result",
          "type": "string"
        }
      ],
      "name": "__callback",
      "outputs": [],
      "payable": false,
      "stateMutability": "nonpayable",
      "type": "function"
    },
    {
      "constant": true,
      "inputs": [
        {
          "name": "owner",
          "type": "address"
        },
        {
          "name": "index",
          "type": "uint256"
        }
      ],
      "name": "tokenOfOwnerByIndex",
      "outputs": [
        {
          "name": "",
          "type": "uint256"
        }
      ],
      "payable": false,
      "stateMutability": "view",
      "type": "function"
    },
    {
      "constant": false,
      "inputs": [
        {
          "name": "_myid",
          "type": "bytes32"
        },
        {
          "name": "_result",
          "type": "string"
        },
        {
          "name": "_proof",
          "type": "bytes"
        }
      ],
      "name": "__callback",
      "outputs": [],
      "payable": false,
      "stateMutability": "nonpayable",
      "type": "function"
    },
    {
      "constant": false,
      "inputs": [
        {
          "name": "to",
          "type": "address"
        },
        {
          "name": "tokenId",
          "type": "uint256"
        }
      ],
      "name": "mint",
      "outputs": [
        {
          "name": "",
          "type": "bool"
        }
      ],
      "payable": false,
      "stateMutability": "nonpayable",
      "type": "function"
    },
    {
      "constant": false,
      "inputs": [
        {
          "name": "from",
          "type": "address"
        },
        {
          "name": "to",
          "type": "address"
        },
        {
          "name": "tokenId",
          "type": "uint256"
        }
      ],
      "name": "safeTransferFrom",
      "outputs": [],
      "payable": false,
      "stateMutability": "nonpayable",
      "type": "function"
    },
    {
      "constant": true,
      "inputs": [
        {
          "name": "index",
          "type": "uint256"
        }
      ],
      "name": "tokenByIndex",
      "outputs": [
        {
          "name": "",
          "type": "uint256"
        }
      ],
      "payable": false,
      "stateMutability": "view",
      "type": "function"
    },
    {
      "constant": true,
      "inputs": [
        {
          "name": "tokenId",
          "type": "uint256"
        }
      ],
      "name": "ownerOf",
      "outputs": [
        {
          "name": "",
          "type": "address"
        }
      ],
      "payable": false,
      "stateMutability": "view",
      "type": "function"
    },
    {
      "constant": true,
      "inputs": [
        {
          "name": "owner",
          "type": "address"
        }
      ],
      "name": "balanceOf",
      "outputs": [
        {
          "name": "",
          "type": "uint256"
        }
      ],
      "payable": false,
      "stateMutability": "view",
      "type": "function"
    },
    {
      "constant": true,
      "inputs": [],
      "name": "owner",
      "outputs": [
        {
          "name": "",
          "type": "address"
        }
      ],
      "payable": false,
      "stateMutability": "view",
      "type": "function"
    },
    {
      "constant": true,
      "inputs": [],
      "name": "symbol",
      "outputs": [
        {
          "name": "",
          "type": "string"
        }
      ],
      "payable": false,
      "stateMutability": "view",
      "type": "function"
    },
    {
      "constant": false,
      "inputs": [
        {
          "name": "to",
          "type": "address"
        },
        {
          "name": "approved",
          "type": "bool"
        }
      ],
      "name": "setApprovalForAll",
      "outputs": [],
      "payable": false,
      "stateMutability": "nonpayable",
      "type": "function"
    },
    {
      "constant": false,
      "inputs": [
        {
          "name": "from",
          "type": "address"
        },
        {
          "name": "to",
          "type": "address"
        },
        {
          "name": "tokenId",
          "type": "uint256"
        },
        {
          "name": "_data",
          "type": "bytes"
        }
      ],
      "name": "safeTransferFrom",
      "outputs": [],
      "payable": false,
      "stateMutability": "nonpayable",
      "type": "function"
    },
    {
      "constant": true,
      "inputs": [
        {
          "name": "tokenId",
          "type": "uint256"
        }
      ],
      "name": "tokenURI",
      "outputs": [
        {
          "name": "",
          "type": "string"
        }
      ],
      "payable": false,
      "stateMutability": "view",
      "type": "function"
    },
    {
      "constant": true,
      "inputs": [],
      "name": "baseTokenURI",
      "outputs": [
        {
          "name": "",
          "type": "string"
        }
      ],
      "payable": false,
      "stateMutability": "view",
      "type": "function"
    },
    {
      "constant": true,
      "inputs": [
        {
          "name": "owner",
          "type": "address"
        },
        {
          "name": "operator",
          "type": "address"
        }
      ],
      "name": "isApprovedForAll",
      "outputs": [
        {
          "name": "",
          "type": "bool"
        }
      ],
      "payable": false,
      "stateMutability": "view",
      "type": "function"
    },
    {
      "constant": false,
      "inputs": [
        {
          "name": "newOwner",
          "type": "address"
        }
      ],
      "name": "transferOwnership",
      "outputs": [],
      "payable": false,
      "stateMutability": "nonpayable",
      "type": "function"
    },
    {
      "constant": false,
      "inputs": [
        {
          "name": "a",
          "type": "uint256[2]"
        },
        {
          "name": "a_p",
          "type": "uint256[2]"
        },
        {
          "name": "b",
          "type": "uint256[2][2]"
        },
        {
          "name": "b_p",
          "type": "uint256[2]"
        },
        {
          "name": "c",
          "type": "uint256[2]"
        },
        {
          "name": "c_p",
          "type": "uint256[2]"
        },
        {
          "name": "h",
          "type": "uint256[2]"
        },
        {
          "name": "k",
          "type": "uint256[2]"
        },
        {
          "name": "input",
          "type": "uint256[2]"
        }
      ],
      "name": "verifyTx",
      "outputs": [
        {
          "name": "r",
          "type": "bool"
        }
      ],
      "payable": false,
      "stateMutability": "nonpayable",
      "type": "function"
    },
    {
      "inputs": [
        {
          "name": "verifierAddress",
          "type": "address"
        }
      ],
      "payable": false,
      "stateMutability": "nonpayable",
      "type": "constructor"
    },
    {
      "anonymous": false,
      "inputs": [
        {
          "indexed": false,
          "name": "solution",
          "type": "address"
        }
      ],
      "name": "SolutionAdded",
      "type": "event"
    },
    {
      "anonymous": false,
      "inputs": [
        {
          "indexed": false,
          "name": "s",
          "type": "string"
        }
      ],
      "name": "Verified",
      "type": "event"
    },
    {
      "anonymous": false,
      "inputs": [
        {
          "indexed": true,
          "name": "from",
          "type": "address"
        },
        {
          "indexed": true,
          "name": "to",
          "type": "address"
        },
        {
          "indexed": true,
          "name": "tokenId",
          "type": "uint256"
        }
      ],
      "name": "Transfer",
      "type": "event"
    },
    {
      "anonymous": false,
      "inputs": [
        {
          "indexed": true,
          "name": "owner",
          "type": "address"
        },
        {
          "indexed": true,
          "name": "approved",
          "type": "address"
        },
        {
          "indexed": true,
          "name": "tokenId",
          "type": "uint256"
        }
      ],
      "name": "Approval",
      "type": "event"
    },
    {
      "anonymous": false,
      "inputs": [
        {
          "indexed": true,
          "name": "owner",
          "type": "address"
        },
        {
          "indexed": true,
          "name": "operator",
          "type": "address"
        },
        {
          "indexed": false,
          "name": "approved",
          "type": "bool"
        }
      ],
      "name": "ApprovalForAll",
      "type": "event"
    },
    {
      "anonymous": false,
      "inputs": [
        {
          "indexed": false,
          "name": "account",
          "type": "address"
        }
      ],
      "name": "Paused",
      "type": "event"
    },
    {
      "anonymous": false,
      "inputs": [
        {
          "indexed": false,
          "name": "account",
          "type": "address"
        }
      ],
      "name": "Unpaused",
      "type": "event"
    },
    {
      "anonymous": false,
      "inputs": [
        {
          "indexed": false,
          "name": "newOwner",
          "type": "address"
        }
      ],
      "name": "OwnershipTransfered",
      "type": "event"
    },
    {
      "constant": false,
      "inputs": [
        {
          "name": "a",
          "type": "uint256[2]"
        },
        {
          "name": "a_p",
          "type": "uint256[2]"
        },
        {
          "name": "b",
          "type": "uint256[2][2]"
        },
        {
          "name": "b_p",
          "type": "uint256[2]"
        },
        {
          "name": "c",
          "type": "uint256[2]"
        },
        {
          "name": "c_p",
          "type": "uint256[2]"
        },
        {
          "name": "h",
          "type": "uint256[2]"
        },
        {
          "name": "k",
          "type": "uint256[2]"
        },
        {
          "name": "input",
          "type": "uint256[2]"
        },
        {
          "name": "solutionAddress",
          "type": "address"
        },
        {
          "name": "tokenId",
          "type": "uint256"
        }
      ],
      "name": "addSolution",
      "outputs": [
        {
          "name": "",
          "type": "bool"
        }
      ],
      "payable": false,
      "stateMutability": "nonpayable",
      "type": "function"
    },
    {
      "constant": false,
      "inputs": [
        {
          "name": "solutionAddress",
          "type": "address"
        },
        {
          "name": "tokenId",
          "type": "uint256"
        }
      ],
      "name": "mintNewNFT",
      "outputs": [
        {
          "name": "",
          "type": "bool"
        }
      ],
      "payable": false,
      "stateMutability": "nonpayable",
      "type": "function"
    }
  ],
  "bytecode": "0x60806040523480156200001157600080fd5b50604051602080620058b4833981018060405260208110156200003357600080fd5b81019080805190602001909291905050506040518060400160405280600a81526020017f5265616c457374617465000000000000000000000000000000000000000000008152506040518060400160405280600481526020017f5245414c000000000000000000000000000000000000000000000000000000008152506040518060600160405280603f815260200162005875603f9139336000806101000a81548173ffffffffffffffffffffffffffffffffffffffff021916908373ffffffffffffffffffffffffffffffffffffffff1602179055507f9736aeb40a8f30a5c076a9897428fdf7ec0e909c96dce63533664c9b5c835da66000809054906101000a900473ffffffffffffffffffffffffffffffffffffffff16604051808273ffffffffffffffffffffffffffffffffffffffff1673ffffffffffffffffffffffffffffffffffffffff16815260200191505060405180910390a160008060146101000a81548160ff021916908315150217905550620001c06301ffc9a760e01b6200029e60201b60201c565b620001d86380ac58cd60e01b6200029e60201b60201c565b620001f063780e9d6360e01b6200029e60201b60201c565b82600f90805190602001906200020892919062000340565b5081601090805190602001906200022192919062000340565b5080601190805190602001906200023a92919062000340565b5062000253635b5e139f60e01b6200029e60201b60201c565b50505080601360006101000a81548173ffffffffffffffffffffffffffffffffffffffff021916908373ffffffffffffffffffffffffffffffffffffffff16021790555050620003ef565b63ffffffff60e01b817bffffffffffffffffffffffffffffffffffffffffffffffffffffffff191614151515620002d457600080fd5b6001806000837bffffffffffffffffffffffffffffffffffffffffffffffffffffffff19167bffffffffffffffffffffffffffffffffffffffffffffffffffffffff1916815260200190815260200160002060006101000a81548160ff02191690831515021790555050565b828054600181600116156101000203166002900490600052602060002090601f016020900481019282601f106200038357805160ff1916838001178555620003b4565b82800160010185558215620003b4579182015b82811115620003b357825182559160200191906001019062000396565b5b509050620003c39190620003c7565b5090565b620003ec91905b80821115620003e8576000816000905550600101620003ce565b5090565b90565b61547680620003ff6000396000f3fe608060405234801561001057600080fd5b506004361061018e5760003560e01c80634f6ccce7116100de578063a22cb46511610097578063d547cfb711610071578063d547cfb714610e69578063e985e9c514610eec578063f2fde38b14610f68578063fe01ff6214610fac5761018e565b8063a22cb46514610c6d578063b88d4fde14610cbd578063c87b56dd14610dc25761018e565b80634f6ccce714610a3257806359ac993214610a745780636352211e14610ada57806370a0823114610b485780638da5cb5b14610ba057806395d89b4114610bea5761018e565b80631cbb57331161014b5780632f745c59116101255780632f745c59146107a057806338bbfa501461080257806340c10f191461095e57806342842e0e146109c45761018e565b80631cbb57331461038557806323b872dd1461066d57806327dc297e146106db5761018e565b806301ffc9a71461019357806306fdde03146101f8578063081812fc1461027b578063095ea7b3146102e957806316c38b3c1461033757806318160ddd14610367575b600080fd5b6101de600480360360208110156101a957600080fd5b8101908080357bffffffffffffffffffffffffffffffffffffffffffffffffffffffff1916906020019092919050505061126a565b604051808215151515815260200191505060405180910390f35b6102006112d2565b6040518080602001828103825283818151815260200191508051906020019080838360005b83811015610240578082015181840152602081019050610225565b50505050905090810190601f16801561026d5780820380516001836020036101000a031916815260200191505b509250505060405180910390f35b6102a76004803603602081101561029157600080fd5b8101908080359060200190929190505050611374565b604051808273ffffffffffffffffffffffffffffffffffffffff1673ffffffffffffffffffffffffffffffffffffffff16815260200191505060405180910390f35b610335600480360360408110156102ff57600080fd5b81019080803573ffffffffffffffffffffffffffffffffffffffff169060200190929190803590602001909291905050506113b1565b005b6103656004803603602081101561034d57600080fd5b81019080803515159060200190929190505050611558565b005b61036f6116ee565b6040518082815260200191505060405180910390f35b61065360048036036102c081101561039c57600080fd5b8101908080604001906002806020026040519081016040528092919082600260200280828437600081840152601f19601f820116905080830192505050505050919291929080604001906002806020026040519081016040528092919082600260200280828437600081840152601f19601f82011690508083019250505050505091929192908060800190600280602002604051908101604052809291906000905b82821015610492578382604002016002806020026040519081016040528092919082600260200280828437600081840152601f19601f8201169050808301925050505050508152602001906001019061043e565b50505050919291929080604001906002806020026040519081016040528092919082600260200280828437600081840152601f19601f820116905080830192505050505050919291929080604001906002806020026040519081016040528092919082600260200280828437600081840152601f19601f820116905080830192505050505050919291929080604001906002806020026040519081016040528092919082600260200280828437600081840152601f19601f820116905080830192505050505050919291929080604001906002806020026040519081016040528092919082600260200280828437600081840152601f19601f820116905080830192505050505050919291929080604001906002806020026040519081016040528092919082600260200280828437600081840152601f19601f820116905080830192505050505050919291929080604001906002806020026040519081016040528092919082600260200280828437600081840152601f19601f8201169050808301925050505050509192919290803573ffffffffffffffffffffffffffffffffffffffff169060200190929190803590602001909291905050506116fb565b604051808215151515815260200191505060405180910390f35b6106d96004803603606081101561068357600080fd5b81019080803573ffffffffffffffffffffffffffffffffffffffff169060200190929190803573ffffffffffffffffffffffffffffffffffffffff16906020019092919080359060200190929190505050611a75565b005b61079e600480360360408110156106f157600080fd5b81019080803590602001909291908035906020019064010000000081111561071857600080fd5b82018360208201111561072a57600080fd5b8035906020019184600183028401116401000000008311171561074c57600080fd5b91908080601f016020809104026020016040519081016040528093929190818152602001838380828437600081840152601f19601f820116905080830192505050505050509192919290505050611a9a565b005b6107ec600480360360408110156107b657600080fd5b81019080803573ffffffffffffffffffffffffffffffffffffffff16906020019092919080359060200190929190505050611add565b6040518082815260200191505060405180910390f35b61095c6004803603606081101561081857600080fd5b81019080803590602001909291908035906020019064010000000081111561083f57600080fd5b82018360208201111561085157600080fd5b8035906020019184600183028401116401000000008311171561087357600080fd5b91908080601f016020809104026020016040519081016040528093929190818152602001838380828437600081840152601f19601f820116905080830192505050505050509192919290803590602001906401000000008111156108d657600080fd5b8201836020820111156108e857600080fd5b8035906020019184600183028401116401000000008311171561090a57600080fd5b91908080601f016020809104026020016040519081016040528093929190818152602001838380828437600081840152601f19601f820116905080830192505050505050509192919290505050611b54565b005b6109aa6004803603604081101561097457600080fd5b81019080803573ffffffffffffffffffffffffffffffffffffffff16906020019092919080359060200190929190505050611b59565b604051808215151515815260200191505060405180910390f35b610a30600480360360608110156109da57600080fd5b81019080803573ffffffffffffffffffffffffffffffffffffffff169060200190929190803573ffffffffffffffffffffffffffffffffffffffff16906020019092919080359060200190929190505050611c1f565b005b610a5e60048036036020811015610a4857600080fd5b8101908080359060200190929190505050611c3f565b6040518082815260200191505060405180910390f35b610ac060048036036040811015610a8a57600080fd5b81019080803573ffffffffffffffffffffffffffffffffffffffff16906020019092919080359060200190929190505050611c77565b604051808215151515815260200191505060405180910390f35b610b0660048036036020811015610af057600080fd5b8101908080359060200190929190505050612351565b604051808273ffffffffffffffffffffffffffffffffffffffff1673ffffffffffffffffffffffffffffffffffffffff16815260200191505060405180910390f35b610b8a60048036036020811015610b5e57600080fd5b81019080803573ffffffffffffffffffffffffffffffffffffffff16906020019092919050505061238e565b6040518082815260200191505060405180910390f35b610ba86123de565b604051808273ffffffffffffffffffffffffffffffffffffffff1673ffffffffffffffffffffffffffffffffffffffff16815260200191505060405180910390f35b610bf2612407565b6040518080602001828103825283818151815260200191508051906020019080838360005b83811015610c32578082015181840152602081019050610c17565b50505050905090810190601f168015610c5f5780820380516001836020036101000a031916815260200191505b509250505060405180910390f35b610cbb60048036036040811015610c8357600080fd5b81019080803573ffffffffffffffffffffffffffffffffffffffff1690602001909291908035151590602001909291905050506124a9565b005b610dc060048036036080811015610cd357600080fd5b81019080803573ffffffffffffffffffffffffffffffffffffffff169060200190929190803573ffffffffffffffffffffffffffffffffffffffff1690602001909291908035906020019092919080359060200190640100000000811115610d3a57600080fd5b820183602082011115610d4c57600080fd5b80359060200191846001830284011164010000000083111715610d6e57600080fd5b91908080601f016020809104026020016040519081016040528093929190818152602001838380828437600081840152601f19601f8201169050808301925050505050505091929192905050506125e5565b005b610dee60048036036020811015610dd857600080fd5b810190808035906020019092919050505061260d565b6040518080602001828103825283818151815260200191508051906020019080838360005b83811015610e2e578082015181840152602081019050610e13565b50505050905090810190601f168015610e5b5780820380516001836020036101000a031916815260200191505b509250505060405180910390f35b610e716126d6565b6040518080602001828103825283818151815260200191508051906020019080838360005b83811015610eb1578082015181840152602081019050610e96565b50505050905090810190601f168015610ede5780820380516001836020036101000a031916815260200191505b509250505060405180910390f35b610f4e60048036036040811015610f0257600080fd5b81019080803573ffffffffffffffffffffffffffffffffffffffff169060200190929190803573ffffffffffffffffffffffffffffffffffffffff169060200190929190505050612778565b604051808215151515815260200191505060405180910390f35b610faa60048036036020811015610f7e57600080fd5b81019080803573ffffffffffffffffffffffffffffffffffffffff16906020019092919050505061280c565b005b6112506004803603610280811015610fc357600080fd5b8101908080604001906002806020026040519081016040528092919082600260200280828437600081840152601f19601f820116905080830192505050505050919291929080604001906002806020026040519081016040528092919082600260200280828437600081840152601f19601f82011690508083019250505050505091929192908060800190600280602002604051908101604052809291906000905b828210156110b9578382604002016002806020026040519081016040528092919082600260200280828437600081840152601f19601f82011690508083019250505050505081526020019060010190611065565b50505050919291929080604001906002806020026040519081016040528092919082600260200280828437600081840152601f19601f820116905080830192505050505050919291929080604001906002806020026040519081016040528092919082600260200280828437600081840152601f19601f820116905080830192505050505050919291929080604001906002806020026040519081016040528092919082600260200280828437600081840152601f19601f820116905080830192505050505050919291929080604001906002806020026040519081016040528092919082600260200280828437600081840152601f19601f820116905080830192505050505050919291929080604001906002806020026040519081016040528092919082600260200280828437600081840152601f19601f820116905080830192505050505050919291929080604001906002806020026040519081016040528092919082600260200280828437600081840152601f19601f8201169050808301925050505050509192919290505050612a04565b604051808215151515815260200191505060405180910390f35b600060016000837bffffffffffffffffffffffffffffffffffffffffffffffffffffffff19167bffffffffffffffffffffffffffffffffffffffffffffffffffffffff1916815260200190815260200160002060009054906101000a900460ff169050919050565b6060600f8054600181600116156101000203166002900480601f01602080910402602001604051908101604052809291908181526020018280546001816001161561010002031660029004801561136a5780601f1061133f5761010080835404028352916020019161136a565b820191906000526020600020905b81548152906001019060200180831161134d57829003601f168201915b5050505050905090565b60006003600083815260200190815260200160002060009054906101000a900473ffffffffffffffffffffffffffffffffffffffff169050919050565b60006113bc82612351565b90508073ffffffffffffffffffffffffffffffffffffffff168373ffffffffffffffffffffffffffffffffffffffff1614151515611445576040517f08c379a00000000000000000000000000000000000000000000000000000000081526004018080602001828103825260218152602001806154076021913960400191505060405180910390fd5b61144f3383612dbd565b15156114a6576040517f08c379a000000000000000000000000000000000000000000000000000000000815260040180806020018281038252602a81526020018061539a602a913960400191505060405180910390fd5b826003600084815260200190815260200160002060006101000a81548173ffffffffffffffffffffffffffffffffffffffff021916908373ffffffffffffffffffffffffffffffffffffffff160217905550818373ffffffffffffffffffffffffffffffffffffffff168273ffffffffffffffffffffffffffffffffffffffff167f8c5be1e5ebec7d5bd14f71427d1e84f3dd0314c0f7b2291e5b200ac8c7c3b92560405160405180910390a4505050565b6000809054906101000a900473ffffffffffffffffffffffffffffffffffffffff1673ffffffffffffffffffffffffffffffffffffffff163373ffffffffffffffffffffffffffffffffffffffff161415156115ff576040517f08c379a00000000000000000000000000000000000000000000000000000000081526004018080602001828103825260238152602001806154286023913960400191505060405180910390fd5b80600060146101000a81548160ff0219169083151502179055508015611687577f62e78cea01bee320cd4e420270b5ea74000d11b0c9f74754ebdbfc544b05a25833604051808273ffffffffffffffffffffffffffffffffffffffff1673ffffffffffffffffffffffffffffffffffffffff16815260200191505060405180910390a16116eb565b7f5db9ee0a495bf2e6ff9c91a7834c1ba4fdd244a5e8aa4e537bd38aeae4b073aa33604051808273ffffffffffffffffffffffffffffffffffffffff1673ffffffffffffffffffffffffffffffffffffffff16815260200191505060405180910390a15b50565b6000600880549050905090565b6000808c8b8a8787876040516020018087600260200280838360005b83811015611732578082015181840152602081019050611717565b505050509050018660026000925b818410156117865782846020020151600260200280838360005b8381101561177557808201518184015260208101905061175a565b505050509050019260010192611740565b9250505085600260200280838360005b838110156117b1578082015181840152602081019050611796565b5050505090500184600260200280838360005b838110156117df5780820151818401526020810190506117c4565b505050509050018373ffffffffffffffffffffffffffffffffffffffff1673ffffffffffffffffffffffffffffffffffffffff1660601b81526014018281526020019650505050505050604051602081830303815290604052805190602001209050611849614f35565b6040518061018001604052808f81526020018e81526020018d81526020018c81526020018b81526020018a81526020018981526020018881526020018781526020018673ffffffffffffffffffffffffffffffffffffffff16815260200185815260200183815250905080601460008681526020019081526020016000206000820151816000019060026118de929190614fe5565b506020820151816002019060026118f6929190614fe5565b5060408201518160040190600261190e929190615025565b50606082015181600801906002611926929190614fe5565b50608082015181600a0190600261193e929190614fe5565b5060a082015181600c01906002611956929190614fe5565b5060c082015181600e0190600261196e929190614fe5565b5060e082015181601001906002611986929190614fe5565b506101008201518160120190600261199f929190614fe5565b506101208201518160140160006101000a81548173ffffffffffffffffffffffffffffffffffffffff021916908373ffffffffffffffffffffffffffffffffffffffff160217905550610140820151816015015561016082015181601601559050507f209e782baeeecf4956303cb3e836fdf3f7279e6729ebccf2d309c292aedd3aeb33604051808273ffffffffffffffffffffffffffffffffffffffff1673ffffffffffffffffffffffffffffffffffffffff16815260200191505060405180910390a150509b9a5050505050505050505050565b611a7f3382612dbd565b1515611a8a57600080fd5b611a95838383612e52565b505050565b611ad9828260006040519080825280601f01601f191660200182016040528015611ad35781602001600182028038833980820191505090505b50611b54565b5050565b6000611ae88361238e565b82101515611af557600080fd5b600660008473ffffffffffffffffffffffffffffffffffffffff1673ffffffffffffffffffffffffffffffffffffffff16815260200190815260200160002082815481101515611b4157fe5b9060005260206000200154905092915050565b505050565b60008060009054906101000a900473ffffffffffffffffffffffffffffffffffffffff1673ffffffffffffffffffffffffffffffffffffffff163373ffffffffffffffffffffffffffffffffffffffff16141515611c02576040517f08c379a00000000000000000000000000000000000000000000000000000000081526004018080602001828103825260238152602001806154286023913960400191505060405180910390fd5b611c0c8383612e76565b611c1582612e97565b6001905092915050565b611c3a838383604051806020016040528060008152506125e5565b505050565b6000611c496116ee565b82101515611c5657600080fd5b600882815481101515611c6557fe5b90600052602060002001549050919050565b60008073ffffffffffffffffffffffffffffffffffffffff166014600084815260200190815260200160002060140160009054906101000a900473ffffffffffffffffffffffffffffffffffffffff1673ffffffffffffffffffffffffffffffffffffffff1614151515611cea57600080fd5b611cf2614f35565b601460008481526020019081526020016000206040518061018001604052908160008201600280602002604051908101604052809291908260028015611d4d576020028201915b815481526020019060010190808311611d39575b5050505050815260200160028201600280602002604051908101604052809291908260028015611d92576020028201915b815481526020019060010190808311611d7e575b5050505050815260200160048201600280602002604051908101604052809291906000905b82821015611e1057838260020201600280602002604051908101604052809291908260028015611dfc576020028201915b815481526020019060010190808311611de8575b505050505081526020019060010190611db7565b50505050815260200160088201600280602002604051908101604052809291908260028015611e54576020028201915b815481526020019060010190808311611e40575b50505050508152602001600a8201600280602002604051908101604052809291908260028015611e99576020028201915b815481526020019060010190808311611e85575b50505050508152602001600c8201600280602002604051908101604052809291908260028015611ede576020028201915b815481526020019060010190808311611eca575b50505050508152602001600e8201600280602002604051908101604052809291908260028015611f23576020028201915b815481526020019060010190808311611f0f575b5050505050815260200160108201600280602002604051908101604052809291908260028015611f68576020028201915b815481526020019060010190808311611f54575b5050505050815260200160128201600280602002604051908101604052809291908260028015611fad576020028201915b815481526020019060010190808311611f99575b505050505081526020016014820160009054906101000a900473ffffffffffffffffffffffffffffffffffffffff1673ffffffffffffffffffffffffffffffffffffffff1673ffffffffffffffffffffffffffffffffffffffff1681526020016015820154815260200160168201548152505090506000601360009054906101000a900473ffffffffffffffffffffffffffffffffffffffff1673ffffffffffffffffffffffffffffffffffffffff1663fe01ff62836000015184602001518560400151866060015187608001518860a001518960c001518a60e001518b61010001516040518a63ffffffff1660e01b8152600401808a600260200280838360005b838110156120ca5780820151818401526020810190506120af565b5050505090500189600260200280838360005b838110156120f85780820151818401526020810190506120dd565b505050509050018860026000925b8184101561214c5782846020020151600260200280838360005b8381101561213b578082015181840152602081019050612120565b505050509050019260010192612106565b9250505087600260200280838360005b8381101561217757808201518184015260208101905061215c565b5050505090500186600260200280838360005b838110156121a557808201518184015260208101905061218a565b5050505090500185600260200280838360005b838110156121d35780820151818401526020810190506121b8565b5050505090500184600260200280838360005b838110156122015780820151818401526020810190506121e6565b5050505090500183600260200280838360005b8381101561222f578082015181840152602081019050612214565b5050505090500182600260200280838360005b8381101561225d578082015181840152602081019050612242565b505050509050019950505050505050505050602060405180830381600087803b15801561228957600080fd5b505af115801561229d573d6000803e3d6000fd5b505050506040513d60208110156122b357600080fd5b81019080805190602001909291905050509050801561231357600160156000846101600151815260200190815260200160002060006101000a81548160ff0219169083151502179055506123078585611b59565b5060019250505061234b565b600160156000846101600151815260200190815260200160002060006101000a81548160ff0219169083151502179055506000925050505b92915050565b60006002600083815260200190815260200160002060009054906101000a900473ffffffffffffffffffffffffffffffffffffffff169050919050565b60006123d7600460008473ffffffffffffffffffffffffffffffffffffffff1673ffffffffffffffffffffffffffffffffffffffff168152602001908152602001600020612fea565b9050919050565b60008060009054906101000a900473ffffffffffffffffffffffffffffffffffffffff16905090565b606060108054600181600116156101000203166002900480601f01602080910402602001604051908101604052809291908181526020018280546001816001161561010002031660029004801561249f5780601f106124745761010080835404028352916020019161249f565b820191906000526020600020905b81548152906001019060200180831161248257829003601f168201915b5050505050905090565b3373ffffffffffffffffffffffffffffffffffffffff168273ffffffffffffffffffffffffffffffffffffffff16141515156124e457600080fd5b80600560003373ffffffffffffffffffffffffffffffffffffffff1673ffffffffffffffffffffffffffffffffffffffff16815260200190815260200160002060008473ffffffffffffffffffffffffffffffffffffffff1673ffffffffffffffffffffffffffffffffffffffff16815260200190815260200160002060006101000a81548160ff0219169083151502179055508173ffffffffffffffffffffffffffffffffffffffff163373ffffffffffffffffffffffffffffffffffffffff167f17307eab39ab6107e8899845ad3d59bd9653f200f220920489ca2b5937696c3183604051808215151515815260200191505060405180910390a35050565b6125f0848484611a75565b6125fc84848484612ff8565b151561260757600080fd5b50505050565b6060612618826131e3565b151561262357600080fd5b601260008381526020019081526020016000208054600181600116156101000203166002900480601f0160208091040260200160405190810160405280929190818152602001828054600181600116156101000203166002900480156126ca5780601f1061269f576101008083540402835291602001916126ca565b820191906000526020600020905b8154815290600101906020018083116126ad57829003601f168201915b50505050509050919050565b606060118054600181600116156101000203166002900480601f01602080910402602001604051908101604052809291908181526020018280546001816001161561010002031660029004801561276e5780601f106127435761010080835404028352916020019161276e565b820191906000526020600020905b81548152906001019060200180831161275157829003601f168201915b5050505050905090565b6000600560008473ffffffffffffffffffffffffffffffffffffffff1673ffffffffffffffffffffffffffffffffffffffff16815260200190815260200160002060008373ffffffffffffffffffffffffffffffffffffffff1673ffffffffffffffffffffffffffffffffffffffff16815260200190815260200160002060009054906101000a900460ff16905092915050565b6000809054906101000a900473ffffffffffffffffffffffffffffffffffffffff1673ffffffffffffffffffffffffffffffffffffffff163373ffffffffffffffffffffffffffffffffffffffff161415156128b3576040517f08c379a00000000000000000000000000000000000000000000000000000000081526004018080602001828103825260238152602001806154286023913960400191505060405180910390fd5b80600073ffffffffffffffffffffffffffffffffffffffff168173ffffffffffffffffffffffffffffffffffffffff161415151561293c576040517f08c379a00000000000000000000000000000000000000000000000000000000081526004018080602001828103825260238152602001806154286023913960400191505060405180910390fd5b816000806101000a81548173ffffffffffffffffffffffffffffffffffffffff021916908373ffffffffffffffffffffffffffffffffffffffff1602179055507f9736aeb40a8f30a5c076a9897428fdf7ec0e909c96dce63533664c9b5c835da66000809054906101000a900473ffffffffffffffffffffffffffffffffffffffff16604051808273ffffffffffffffffffffffffffffffffffffffff1673ffffffffffffffffffffffffffffffffffffffff16815260200191505060405180910390a15050565b6000612a0e615075565b60405180604001604052808c6000600281101515612a2857fe5b602002015181526020018c6001600281101515612a4157fe5b6020020151815250816000018190525060405180604001604052808b6000600281101515612a6b57fe5b602002015181526020018b6001600281101515612a8457fe5b60200201518152508160200181905250604051806040016040528060405180604001604052808c6000600281101515612ab957fe5b60200201516000600281101515612acc57fe5b602002015181526020018c6000600281101515612ae557fe5b60200201516001600281101515612af857fe5b6020020151815250815260200160405180604001604052808c6001600281101515612b1f57fe5b60200201516000600281101515612b3257fe5b602002015181526020018c6001600281101515612b4b57fe5b60200201516001600281101515612b5e57fe5b602002015181525081525081604001819052506040518060400160405280896000600281101515612b8b57fe5b60200201518152602001896001600281101515612ba457fe5b602002015181525081606001819052506040518060400160405280886000600281101515612bce57fe5b60200201518152602001886001600281101515612be757fe5b602002015181525081608001819052506040518060400160405280876000600281101515612c1157fe5b60200201518152602001876001600281101515612c2a57fe5b60200201518152508160a001819052506040518060400160405280866000600281101515612c5457fe5b60200201518152602001866001600281101515612c6d57fe5b60200201518152508160e001819052506040518060400160405280856000600281101515612c9757fe5b60200201518152602001856001600281101515612cb057fe5b60200201518152508160c0018190525060606002604051908082528060200260200182016040528015612cf25781602001602082028038833980820191505090505b50905060008090505b6002811015612d40578481600281101515612d1257fe5b60200201518282815181101515612d2557fe5b90602001906020020181815250508080600101915050612cfb565b506000612d4d8284613255565b1415612da9577f3f3cfdb26fb5f9f1786ab4f1a1f9cd4c0b5e726cbdfc26e495261731aad44e396040518080602001828103825260228152602001806153e56022913960400191505060405180910390a1600192505050612db0565b6000925050505b9998505050505050505050565b600080612dc983612351565b90508073ffffffffffffffffffffffffffffffffffffffff168473ffffffffffffffffffffffffffffffffffffffff161480612e3857508373ffffffffffffffffffffffffffffffffffffffff16612e2084611374565b73ffffffffffffffffffffffffffffffffffffffff16145b80612e495750612e488185612778565b5b91505092915050565b612e5d838383613495565b612e678382613672565b612e718282613816565b505050565b612e8082826138dd565b612e8a8282613816565b612e9381613a54565b5050565b612ea0816131e3565b1515612f14576040517f08c379a00000000000000000000000000000000000000000000000000000000081526004018080602001828103825260158152602001807f546f6b656e494420646f65736e2774206578697374000000000000000000000081525060200191505060405180910390fd5b612fc060118054600181600116156101000203166002900480601f016020809104026020016040519081016040528092919081815260200182805460018160011615610100020316600290048015612fad5780601f10612f8257610100808354040283529160200191612fad565b820191906000526020600020905b815481529060010190602001808311612f9057829003601f168201915b5050505050612fbb83613aa0565b613bda565b601260008381526020019081526020016000209080519060200190612fe69291906150ea565b5050565b600081600001549050919050565b60006130198473ffffffffffffffffffffffffffffffffffffffff16613c1e565b151561302857600190506131db565b60008473ffffffffffffffffffffffffffffffffffffffff1663150b7a02338887876040518563ffffffff1660e01b8152600401808573ffffffffffffffffffffffffffffffffffffffff1673ffffffffffffffffffffffffffffffffffffffff1681526020018473ffffffffffffffffffffffffffffffffffffffff1673ffffffffffffffffffffffffffffffffffffffff16815260200183815260200180602001828103825283818151815260200191508051906020019080838360005b838110156131035780820151818401526020810190506130e8565b50505050905090810190601f1680156131305780820380516001836020036101000a031916815260200191505b5095505050505050602060405180830381600087803b15801561315257600080fd5b505af1158015613166573d6000803e3d6000fd5b505050506040513d602081101561317c57600080fd5b8101908080519060200190929190505050905063150b7a0260e01b7bffffffffffffffffffffffffffffffffffffffffffffffffffffffff1916817bffffffffffffffffffffffffffffffffffffffffffffffffffffffff1916149150505b949350505050565b6000806002600084815260200190815260200160002060009054906101000a900473ffffffffffffffffffffffffffffffffffffffff169050600073ffffffffffffffffffffffffffffffffffffffff168173ffffffffffffffffffffffffffffffffffffffff161415915050919050565b600061325f61516a565b613267613c69565b90508060e0015151600185510114151561328057600080fd5b6132886151d9565b6040518060400160405280600081526020016000815250905060008090505b8551811015613307576132f8826132f38560e00151600185018151811015156132cc57fe5b9060200190602002015189858151811015156132e457fe5b906020019060200201516142aa565b614346565b915080806001019150506132a7565b5061332e818360e00151600081518110151561331f57fe5b90602001906020020151614346565b90506133578460000151836000015161334a8760200151614403565b61335261449f565b614569565b15156133685760019250505061348f565b61338f826020015185604001516133828760600151614403565b61338a61449f565b614569565b15156133a05760029250505061348f565b6133c7846080015183604001516133ba8760a00151614403565b6133c261449f565b614569565b15156133d85760039250505061348f565b6134248460c001518360600151613408613403856133fe8a600001518b60800151614346565b614346565b614403565b8560a0015161341a8760800151614403565b8960400151614675565b15156134355760049250505061348f565b613477613446828660000151614346565b85604001516134588760e00151614403565b8560c0015161346a8960800151614403565b61347261449f565b614675565b15156134885760059250505061348f565b6000925050505b92915050565b60006134a082612351565b90508073ffffffffffffffffffffffffffffffffffffffff168473ffffffffffffffffffffffffffffffffffffffff16141515613528576040517f08c379a00000000000000000000000000000000000000000000000000000000081526004018080602001828103825260218152602001806153c46021913960400191505060405180910390fd5b613531826147bd565b613578600460008673ffffffffffffffffffffffffffffffffffffffff1673ffffffffffffffffffffffffffffffffffffffff16815260200190815260200160002061487d565b6135bf600460008573ffffffffffffffffffffffffffffffffffffffff1673ffffffffffffffffffffffffffffffffffffffff1681526020019081526020016000206148a0565b826002600084815260200190815260200160002060006101000a81548173ffffffffffffffffffffffffffffffffffffffff021916908373ffffffffffffffffffffffffffffffffffffffff160217905550818373ffffffffffffffffffffffffffffffffffffffff168573ffffffffffffffffffffffffffffffffffffffff167fddf252ad1be2c89b69c2b068fc378daa952ba7f163c4a11628f55a4df523b3ef60405160405180910390a450505050565b60006136ca6001600660008673ffffffffffffffffffffffffffffffffffffffff1673ffffffffffffffffffffffffffffffffffffffff168152602001908152602001600020805490506148b690919063ffffffff16565b905060006007600084815260200190815260200160002054905081811415156137bd576000600660008673ffffffffffffffffffffffffffffffffffffffff1673ffffffffffffffffffffffffffffffffffffffff1681526020019081526020016000208381548110151561373b57fe5b9060005260206000200154905080600660008773ffffffffffffffffffffffffffffffffffffffff1673ffffffffffffffffffffffffffffffffffffffff1681526020019081526020016000208381548110151561379557fe5b9060005260206000200181905550816007600083815260200190815260200160002081905550505b600660008573ffffffffffffffffffffffffffffffffffffffff1673ffffffffffffffffffffffffffffffffffffffff16815260200190815260200160002080548091906001900361380f91906151f3565b5050505050565b600660008373ffffffffffffffffffffffffffffffffffffffff1673ffffffffffffffffffffffffffffffffffffffff168152602001908152602001600020805490506007600083815260200190815260200160002081905550600660008373ffffffffffffffffffffffffffffffffffffffff1673ffffffffffffffffffffffffffffffffffffffff1681526020019081526020016000208190806001815401808255809150509060018203906000526020600020016000909192909190915055505050565b6138e6816131e3565b15151561395b576040517f08c379a00000000000000000000000000000000000000000000000000000000081526004018080602001828103825260158152602001807f546f6b656e20616c72656164792065786973747321000000000000000000000081525060200191505060405180910390fd5b816002600083815260200190815260200160002060006101000a81548173ffffffffffffffffffffffffffffffffffffffff021916908373ffffffffffffffffffffffffffffffffffffffff1602179055506139f4600460008473ffffffffffffffffffffffffffffffffffffffff1673ffffffffffffffffffffffffffffffffffffffff1681526020019081526020016000206148a0565b808273ffffffffffffffffffffffffffffffffffffffff16600073ffffffffffffffffffffffffffffffffffffffff167fddf252ad1be2c89b69c2b068fc378daa952ba7f163c4a11628f55a4df523b3ef60405160405180910390a45050565b6008805490506009600083815260200190815260200160002081905550600881908060018154018082558091505090600182039060005260206000200160009091929091909150555050565b60606000821415613ae8576040518060400160405280600181526020017f30000000000000000000000000000000000000000000000000000000000000008152509050613bd5565b600082905060005b600082141515613b16578080600101915050600a82811515613b0e57fe5b049150613af0565b6060816040519080825280601f01601f191660200182016040528015613b4b5781602001600182028038833980820191505090505b50905060006001830390505b600086141515613bcd57600a86811515613b6d57fe5b0660300160f81b828280600190039350815181101515613b8957fe5b9060200101907effffffffffffffffffffffffffffffffffffffffffffffffffffffffffffff1916908160001a905350600a86811515613bc557fe5b049550613b57565b819450505050505b919050565b6060613c168383604051806020016040528060008152506040518060200160405280600081525060405180602001604052806000815250614900565b905092915050565b60008060007fc5d2460186f7233c927e7db2dcc703c0e500b653ca82273b7bfad8045d85a47060001b9050833f9150808214158015613c6057506000801b8214155b92505050919050565b613c7161516a565b604051806040016040528060405180604001604052807f1611c2c82f4d3b9991cd0ea0baa3e1d7b86b1c6268afc1ee95cef391bdc9b5ed81526020017f11acaa6f937903f82f9c856526c51d0e2c831e50a1b336e0e94fe4a8b9e75679815250815260200160405180604001604052807f10ef9138bd56e67271083081389ac571354664cfdce8e7ad58563037d3a23dbd81526020017f22d26fb322a80cfe8e492c8b3851b2a2446699878f3746a82ccc7c94b68b9dcc815250815250816000018190525060405180604001604052807f283131f741c69294aac569ac498f9e020c93bd625ae15593f1fb11178afe416681526020017f054018c927c24563a5b7164938619e654766abcb62d846277c48b125f364d9078152508160200181905250604051806040016040528060405180604001604052807f17cd7a508b21751f1283ba55ebb4fcf8445e9f77304b745b666b31d2ea2c773281526020017f258641d0e2ef578f591ec8fa2ee2f28dd43504c0f13957db1ab625d144739c4e815250815260200160405180604001604052807f18bdcd4cf5a5ecb5de1184945700ca24b3c0d61c64dc8219a8a59313009a7d9d81526020017f1e5720dc13ad5cc79c0498a565e30477d99a5e3f8d4dcb80e8bbd8435e11b3fe8152508152508160400181905250604051806040016040528060405180604001604052807f2823f4384feef8c5ccfd386edf2c16a27fae9eaa0132167302c6f70cf88de0c381526020017f2e9b00f7a1160ea4d1e8009a3430b04d8f2cbf64994162326ec3309f831a80ae815250815260200160405180604001604052807f02eef9e3eed08e2e055f5eaba6e92d8e00ae861251ebc7e5d0767e21348165a281526020017f2d0fd160863c82b9303973e043535f6e40eaeceaefde424b536b51551044d014815250815250816060018190525060405180604001604052807f091ac6b3872ffbfd856fe3354d8ca99e4674ff4d1802f6ef01f9bfeb19ba7eec81526020017f26b0c8a28b44b575d788d5e1da88903f43e76386c1c5844eb9cea9953832810c8152508160800181905250604051806040016040528060405180604001604052807f15cd795c03f85237a4f7f2a76f169b67e6677a40181ca784fa59cf0eae61d32f81526020017f22cabd29ed777613ce8f5d62c211377b71dd674b366c86758fbfcea998e68359815250815260200160405180604001604052807f1e084b17280bf8e83c51ccedd75f05e2a7f12a61f984ad11fef2384ec4afd33281526020017f25f512b120627274b84a7d30a8a8181c0ba5d68f3e47d02af5ef9e07b83ce8558152508152508160a00181905250604051806040016040528060405180604001604052807f0b47de0616e638a085645d9e1acaee3e7604e54ab597511e19c76b7f891e744481526020017f125fc2df0de299204474954e75da16e578e38ee5464a13b0ac9896a83d87c9d4815250815260200160405180604001604052807f1805dd78b20ed790008ebc645d61c313a7e2eb972a3c6e1b4bf9ba4ef04f517b81526020017f14537e929d780c6b3c17f4470bbc52d60c4fa9fbbad5a9756587d5d0ac2291048152508152508160c00181905250600360405190808252806020026020018201604052801561413f57816020015b61412c61521f565b8152602001906001900390816141245790505b508160e0018190525060405180604001604052807f2b64a4e7c8bf21e45ffb5b422f31fea73247478f72d77a15a227234c3ce5f66381526020017f0687e94d92e170ff78d88b7431681eacad1fd3fb73b1084edafe264b6137e4ba8152508160e0015160008151811015156141b057fe5b9060200190602002018190525060405180604001604052807f18cce5acee26a3c28b286c213dea5e91e407494366f8c14c22b5d9719c8f895881526020017f211c0759737dfa6bffe0ce1d2b8d99f109915f93dfacf2f48721a28e96780cf98152508160e00151600181518110151561422557fe5b9060200190602002018190525060405180604001604052807f1816a9cd07ec3e0cabf7ce8e40a0911a08097a31dbdbcac481a1d7c511f7830281526020017f2d265f27014ea990be7176add2ed3221eaee7bb9a0e035dd281fb94133b2f12c8152508160e00151600281518110151561429a57fe5b9060200190602002018190525090565b6142b26151d9565b6142ba615239565b83600001518160006003811015156142ce57fe5b60200201818152505083602001518160016003811015156142eb57fe5b6020020181815250508281600260038110151561430457fe5b6020020181815250506000606083608084600060076107d05a03f19050806000811461432f57614331565bfe5b5080151561433e57600080fd5b505092915050565b61434e6151d9565b61435661525b565b836000015181600060048110151561436a57fe5b602002018181525050836020015181600160048110151561438757fe5b60200201818152505082600001518160026004811015156143a457fe5b60200201818152505082602001518160036004811015156143c157fe5b602002018181525050600060608360c084600060066107d05a03f1905080600081146143ec576143ee565bfe5b508015156143fb57600080fd5b505092915050565b61440b6151d9565b60007f30644e72e131a029b85045b68181585d97816a916871ca8d3c208c16d87cfd47905060008360000151148015614448575060008360200151145b1561446c57604051806040016040528060008152602001600081525091505061449a565b60405180604001604052808460000151815260200182856020015181151561449057fe5b0683038152509150505b919050565b6144a761527d565b604051806040016040528060405180604001604052807f198e9393920d483a7260bfb731fb5d25f1aa493335a9e71297e485b7aef312c281526020017f1800deef121f1e76426a00665e5c4479674322d4f75edadd46debd5cd992f6ed815250815260200160405180604001604052807f090689d0585ff075ec9e99ad690c3395bc4b313370b38ef355acdadcd122975b81526020017f12c85ea5db8c6deb4aab71808dcb408fe3d1e7690c43d37b4ce6cc0166fa7daa815250815250905090565b6000606060026040519080825280602002602001820160405280156145a857816020015b61459561521f565b81526020019060019003908161458d5790505b509050606060026040519080825280602002602001820160405280156145e857816020015b6145d56152a3565b8152602001906001900390816145cd5790505b509050868260008151811015156145fb57fe5b906020019060200201819052508482600181518110151561461857fe5b906020019060200201819052508581600081518110151561463557fe5b906020019060200201819052508381600181518110151561465257fe5b906020019060200201819052506146698282614be0565b92505050949350505050565b6000606060036040519080825280602002602001820160405280156146b457816020015b6146a161521f565b8152602001906001900390816146995790505b509050606060036040519080825280602002602001820160405280156146f457816020015b6146e16152a3565b8152602001906001900390816146d95790505b5090508882600081518110151561470757fe5b906020019060200201819052508682600181518110151561472457fe5b906020019060200201819052508482600281518110151561474157fe5b906020019060200201819052508781600081518110151561475e57fe5b906020019060200201819052508581600181518110151561477b57fe5b906020019060200201819052508381600281518110151561479857fe5b906020019060200201819052506147af8282614be0565b925050509695505050505050565b600073ffffffffffffffffffffffffffffffffffffffff166003600083815260200190815260200160002060009054906101000a900473ffffffffffffffffffffffffffffffffffffffff1673ffffffffffffffffffffffffffffffffffffffff1614151561487a5760006003600083815260200190815260200160002060006101000a81548173ffffffffffffffffffffffffffffffffffffffff021916908373ffffffffffffffffffffffffffffffffffffffff1602179055505b50565b614895600182600001546148b690919063ffffffff16565b816000018190555050565b6001816000016000828254019250508190555050565b60006148f883836040518060400160405280601e81526020017f536166654d6174683a207375627472616374696f6e206f766572666c6f770000815250614e73565b905092915050565b6060808690506060869050606086905060608690506060869050606081518351855187518951010101016040519080825280601f01601f19166020018201604052801561495c5781602001600182028038833980820191505090505b509050606081905060008090506000809050600090505b88518110156149e757888181518110151561498a57fe5b90602001015160f81c60f81b83838060010194508151811015156149aa57fe5b9060200101907effffffffffffffffffffffffffffffffffffffffffffffffffffffffffffff1916908160001a9053508080600101915050614973565b600090505b8751811015614a60578781815181101515614a0357fe5b90602001015160f81c60f81b8383806001019450815181101515614a2357fe5b9060200101907effffffffffffffffffffffffffffffffffffffffffffffffffffffffffffff1916908160001a90535080806001019150506149ec565b600090505b8651811015614ad9578681815181101515614a7c57fe5b90602001015160f81c60f81b8383806001019450815181101515614a9c57fe5b9060200101907effffffffffffffffffffffffffffffffffffffffffffffffffffffffffffff1916908160001a9053508080600101915050614a65565b600090505b8551811015614b52578581815181101515614af557fe5b90602001015160f81c60f81b8383806001019450815181101515614b1557fe5b9060200101907effffffffffffffffffffffffffffffffffffffffffffffffffffffffffffff1916908160001a9053508080600101915050614ade565b600090505b8451811015614bcb578481815181101515614b6e57fe5b90602001015160f81c60f81b8383806001019450815181101515614b8e57fe5b9060200101907effffffffffffffffffffffffffffffffffffffffffffffffffffffffffffff1916908160001a9053508080600101915050614b57565b82995050505050505050505095945050505050565b600081518351141515614bf257600080fd5b6000835190506000600682029050606081604051908082528060200260200182016040528015614c315781602001602082028038833980820191505090505b50905060008090505b83811015614e0f578681815181101515614c5057fe5b90602001906020020151600001518260006006840201815181101515614c7257fe5b90602001906020020181815250508681815181101515614c8e57fe5b90602001906020020151602001518260016006840201815181101515614cb057fe5b90602001906020020181815250508581815181101515614ccc57fe5b90602001906020020151600001516000600281101515614ce857fe5b60200201518260026006840201815181101515614d0157fe5b90602001906020020181815250508581815181101515614d1d57fe5b90602001906020020151600001516001600281101515614d3957fe5b60200201518260036006840201815181101515614d5257fe5b90602001906020020181815250508581815181101515614d6e57fe5b90602001906020020151602001516000600281101515614d8a57fe5b60200201518260046006840201815181101515614da357fe5b90602001906020020181815250508581815181101515614dbf57fe5b90602001906020020151602001516001600281101515614ddb57fe5b60200201518260056006840201815181101515614df457fe5b90602001906020020181815250508080600101915050614c3a565b50614e186152c9565b60006020826020860260208601600060086107d05a03f190508060008114614e3f57614e41565bfe5b50801515614e4e57600080fd5b6000826000600181101515614e5f57fe5b602002015114159550505050505092915050565b60008383111582901515614f22576040517f08c379a00000000000000000000000000000000000000000000000000000000081526004018080602001828103825283818151815260200191508051906020019080838360005b83811015614ee7578082015181840152602081019050614ecc565b50505050905090810190601f168015614f145780820380516001836020036101000a031916815260200191505b509250505060405180910390fd5b5060008385039050809150509392505050565b604051806102e00160405280614f496152eb565b8152602001614f566152eb565b8152602001614f6361530d565b8152602001614f706152eb565b8152602001614f7d6152eb565b8152602001614f8a6152eb565b8152602001614f976152eb565b8152602001614fa46152eb565b8152602001614fb16152eb565b8152602001600073ffffffffffffffffffffffffffffffffffffffff16815260200160008152602001600080191681525090565b8260028101928215615014579160200282015b82811115615013578251825591602001919060010190614ff8565b5b509050615021919061533a565b5090565b82600280028101928215615064579160200282015b8281111561506357825182906002615053929190614fe5565b509160200191906002019061503a565b5b509050615071919061535f565b5090565b60405180610240016040528061508961521f565b815260200161509661521f565b81526020016150a36152a3565b81526020016150b061521f565b81526020016150bd61521f565b81526020016150ca61521f565b81526020016150d761521f565b81526020016150e461521f565b81525090565b828054600181600116156101000203166002900490600052602060002090601f016020900481019282601f1061512b57805160ff1916838001178555615159565b82800160010185558215615159579182015b8281111561515857825182559160200191906001019061513d565b5b509050615166919061533a565b5090565b60405180610320016040528061517e6152a3565b815260200161518b61521f565b81526020016151986152a3565b81526020016151a56152a3565b81526020016151b261521f565b81526020016151bf6152a3565b81526020016151cc6152a3565b8152602001606081525090565b604051806040016040528060008152602001600081525090565b81548183558181111561521a57818360005260206000209182019101615219919061533a565b5b505050565b604051806040016040528060008152602001600081525090565b6040518060600160405280600390602082028038833980820191505090505090565b6040518060800160405280600490602082028038833980820191505090505090565b60405180608001604052806152906152eb565b815260200161529d6152eb565b81525090565b60405180608001604052806152b66152eb565b81526020016152c36152eb565b81525090565b6040518060200160405280600190602082028038833980820191505090505090565b6040518060400160405280600290602082028038833980820191505090505090565b60405180608001604052806002905b6153246152eb565b81526020019060019003908161531c5790505090565b61535c91905b80821115615358576000816000905550600101615340565b5090565b90565b61538891905b80821115615384576000818161537b919061538b565b50600201615365565b5090565b90565b50600081556001016000905556fe546869732066756e6374696f6e2068617320746f20626520617070726f766564206f72206f776e65722146726f6d2061646472657373206973206e6f74206f776e657220616472657373215472616e73616374696f6e207375636365737366756c6c792076657269666965642e4e6577206f776e65722063616e27742062652063757272656e74206f776e6572214f6e6c79206f776e65722063616e20706572666f726d207468697320616374696f6e21a165627a7a72305820bd071c68612761452490a15448e93265bb37a09da4890d6666a912fcdfe6ef93002968747470733a2f2f73332d75732d776573742d322e616d617a6f6e6177732e636f6d2f756461636974792d626c6f636b636861696e2f63617073746f6e652f",
  "source": "pragma solidity >=0.5.0 <=0.8.17;\n\nimport './ERC721Mintable.sol';\n// TODO define a contract call to the zokrates generated solidity contract <Verifier> or <renamedVerifier>\nimport './Verifier.sol';\n\n// TODO define another contract named SolnSquareVerifier that inherits from your ERC721Mintable class\ncontract SolnSquareVerifier is ERC721Mintable, Verifier {\n\n    Verifier verifierContract;\n\n    constructor(address verifierAddress) ERC721Mintable() public {\n        verifierContract = Verifier(verifierAddress);\n    }\n\n    // TODO define a solutions struct that can hold an index & an address\n    struct Solution {\n        uint[2] a;\n        uint[2] a_p;\n        uint[2][2] b;\n        uint[2] b_p;\n        uint[2] c;\n        uint[2] c_p;\n        uint[2] h;\n        uint[2] k;\n        uint[2] input;\n        address solutionAddress;\n        uint256 tokenId;\n        bytes32 key;\n    }\n\n    // TODO define an array of the above struct\n    mapping(uint256 => Solution) solutions;\n\n    // TODO define a mapping to store unique solutions submitted\n    mapping(bytes32 => bool) submittedSolutions;\n\n\n    // TODO Create an event to emit when a solution is added\n    event SolutionAdded(address solution);\n\n\n    // TODO Create a function to add the solutions to the array and emit the event\n    function addSolution(uint[2] memory a, uint[2] memory a_p, uint[2][2] memory b, uint[2] memory b_p, uint[2] memory c, uint[2] memory c_p, uint[2] memory h, uint[2] memory k, uint[2] memory input, address solutionAddress, uint256 tokenId) public returns (bool) {\n        bytes32 key = keccak256(abi.encodePacked(a, b, c, input, solutionAddress, tokenId));\n        Solution memory solution = Solution(a, a_p, b, b_p, c, c_p, h, k, input, solutionAddress, tokenId, key);\n        solutions[tokenId] = solution;\n        emit SolutionAdded(msg.sender);\n    }\n\n    // TODO Create a function to mint new NFT only after the solution has been verified\n    //  - make sure the solution is unique (has not been used before)\n    //  - make sure you handle metadata as well as tokenSuplly\n    function mintNewNFT(address solutionAddress, uint256 tokenId) public returns (bool) {\n        require(solutions[tokenId].solutionAddress != address(0));\n        Solution memory solution = solutions[tokenId];\n        bool verification = verifierContract.verifyTx(solution.a, solution.a_p, solution.b, solution.b_p, solution.c, solution.c_p, solution.h, solution.k, solution.input);\n        if(verification) {\n            submittedSolutions[solution.key] = true;\n            super.mint(solutionAddress, tokenId);\n            return true;\n        } else {\n            submittedSolutions[solution.key] = true;\n            return false;\n        }\n    }\n\n}",
  "sourcePath": "/Users/saschagetzinger/Dev/Blockchain Dev/5_Capstone/Blockchain-Capstone/eth-contracts/contracts/SolnSquareVerifier.sol",
  "compiler": {
    "name": "solc",
    "version": "0.5.5+commit.47a71e8f.Emscripten.clang"
  },
  "schemaVersion": "3.4.9",
  "updatedAt": "2022-09-28T21:45:49.338Z",
  "networkType": "ethereum",
  "devdoc": {
    "methods": {
      "isApprovedForAll(address,address)": {
        "details": "Tells whether an operator is approved by a given owner",
        "params": {
          "operator": "operator address which you want to query the approval of",
          "owner": "owner address which you want to query the approval of"
        },
        "return": "bool whether the given operator is approved by the given owner"
      },
      "setApprovalForAll(address,bool)": {
        "details": "Sets or unsets the approval of a given operator An operator is allowed to transfer all tokens of the sender on their behalf",
        "params": {
          "approved": "representing the status of the approval to be set",
          "to": "operator address to set the approval"
        }
      },
      "supportsInterface(bytes4)": {
        "details": "implement supportsInterface(bytes4) using a lookup table"
      },
      "tokenByIndex(uint256)": {
        "details": "Gets the token ID at a given index of all the tokens in this contract Reverts if the index is greater or equal to the total number of tokens",
        "params": {
          "index": "uint256 representing the index to be accessed of the tokens list"
        },
        "return": "uint256 token ID at the given index of the tokens list"
      },
      "tokenOfOwnerByIndex(address,uint256)": {
        "details": "Gets the token ID at a given index of the tokens list of the requested owner",
        "params": {
          "index": "uint256 representing the index to be accessed of the requested tokens list",
          "owner": "address owning the tokens list to be accessed"
        },
        "return": "uint256 token ID at the given index of the tokens list owned by the requested address"
      },
      "totalSupply()": {
        "details": "Gets the total amount of tokens stored by the contract",
        "return": "uint256 representing the total amount of tokens"
      }
    }
  },
  "userdoc": {
    "methods": {}
  }
}