{
  "contractName": "SolnSquareVerifier",
  "abi": [
    {
      "constant": true,
      "inputs": [
        {
          "name": "interfaceId",
          "type": "bytes4"
        }
      ],
      "name": "supportsInterface",
      "outputs": [
        {
          "name": "",
          "type": "bool"
        }
      ],
      "payable": false,
      "stateMutability": "view",
      "type": "function"
    },
    {
      "constant": true,
      "inputs": [],
      "name": "name",
      "outputs": [
        {
          "name": "",
          "type": "string"
        }
      ],
      "payable": false,
      "stateMutability": "view",
      "type": "function"
    },
    {
      "constant": true,
      "inputs": [
        {
          "name": "tokenId",
          "type": "uint256"
        }
      ],
      "name": "getApproved",
      "outputs": [
        {
          "name": "",
          "type": "address"
        }
      ],
      "payable": false,
      "stateMutability": "view",
      "type": "function"
    },
    {
      "constant": false,
      "inputs": [
        {
          "name": "to",
          "type": "address"
        },
        {
          "name": "tokenId",
          "type": "uint256"
        }
      ],
      "name": "approve",
      "outputs": [],
      "payable": false,
      "stateMutability": "nonpayable",
      "type": "function"
    },
    {
      "constant": false,
      "inputs": [
        {
          "name": "paused",
          "type": "bool"
        }
      ],
      "name": "setPaused",
      "outputs": [],
      "payable": false,
      "stateMutability": "nonpayable",
      "type": "function"
    },
    {
      "constant": true,
      "inputs": [],
      "name": "totalSupply",
      "outputs": [
        {
          "name": "",
          "type": "uint256"
        }
      ],
      "payable": false,
      "stateMutability": "view",
      "type": "function"
    },
    {
      "constant": false,
      "inputs": [
        {
          "name": "from",
          "type": "address"
        },
        {
          "name": "to",
          "type": "address"
        },
        {
          "name": "tokenId",
          "type": "uint256"
        }
      ],
      "name": "transferFrom",
      "outputs": [],
      "payable": false,
      "stateMutability": "nonpayable",
      "type": "function"
    },
    {
      "constant": false,
      "inputs": [
        {
          "name": "_myid",
          "type": "bytes32"
        },
        {
          "name": "_result",
          "type": "string"
        }
      ],
      "name": "__callback",
      "outputs": [],
      "payable": false,
      "stateMutability": "nonpayable",
      "type": "function"
    },
    {
      "constant": true,
      "inputs": [
        {
          "name": "owner",
          "type": "address"
        },
        {
          "name": "index",
          "type": "uint256"
        }
      ],
      "name": "tokenOfOwnerByIndex",
      "outputs": [
        {
          "name": "",
          "type": "uint256"
        }
      ],
      "payable": false,
      "stateMutability": "view",
      "type": "function"
    },
    {
      "constant": false,
      "inputs": [
        {
          "name": "_myid",
          "type": "bytes32"
        },
        {
          "name": "_result",
          "type": "string"
        },
        {
          "name": "_proof",
          "type": "bytes"
        }
      ],
      "name": "__callback",
      "outputs": [],
      "payable": false,
      "stateMutability": "nonpayable",
      "type": "function"
    },
    {
      "constant": false,
      "inputs": [
        {
          "name": "from",
          "type": "address"
        },
        {
          "name": "to",
          "type": "address"
        },
        {
          "name": "tokenId",
          "type": "uint256"
        }
      ],
      "name": "safeTransferFrom",
      "outputs": [],
      "payable": false,
      "stateMutability": "nonpayable",
      "type": "function"
    },
    {
      "constant": true,
      "inputs": [
        {
          "name": "index",
          "type": "uint256"
        }
      ],
      "name": "tokenByIndex",
      "outputs": [
        {
          "name": "",
          "type": "uint256"
        }
      ],
      "payable": false,
      "stateMutability": "view",
      "type": "function"
    },
    {
      "constant": true,
      "inputs": [
        {
          "name": "tokenId",
          "type": "uint256"
        }
      ],
      "name": "ownerOf",
      "outputs": [
        {
          "name": "",
          "type": "address"
        }
      ],
      "payable": false,
      "stateMutability": "view",
      "type": "function"
    },
    {
      "constant": true,
      "inputs": [
        {
          "name": "owner",
          "type": "address"
        }
      ],
      "name": "balanceOf",
      "outputs": [
        {
          "name": "",
          "type": "uint256"
        }
      ],
      "payable": false,
      "stateMutability": "view",
      "type": "function"
    },
    {
      "constant": true,
      "inputs": [],
      "name": "owner",
      "outputs": [
        {
          "name": "",
          "type": "address"
        }
      ],
      "payable": false,
      "stateMutability": "view",
      "type": "function"
    },
    {
      "constant": true,
      "inputs": [],
      "name": "symbol",
      "outputs": [
        {
          "name": "",
          "type": "string"
        }
      ],
      "payable": false,
      "stateMutability": "view",
      "type": "function"
    },
    {
      "constant": false,
      "inputs": [
        {
          "name": "to",
          "type": "address"
        },
        {
          "name": "approved",
          "type": "bool"
        }
      ],
      "name": "setApprovalForAll",
      "outputs": [],
      "payable": false,
      "stateMutability": "nonpayable",
      "type": "function"
    },
    {
      "constant": false,
      "inputs": [
        {
          "name": "from",
          "type": "address"
        },
        {
          "name": "to",
          "type": "address"
        },
        {
          "name": "tokenId",
          "type": "uint256"
        },
        {
          "name": "_data",
          "type": "bytes"
        }
      ],
      "name": "safeTransferFrom",
      "outputs": [],
      "payable": false,
      "stateMutability": "nonpayable",
      "type": "function"
    },
    {
      "constant": true,
      "inputs": [
        {
          "name": "tokenId",
          "type": "uint256"
        }
      ],
      "name": "tokenURI",
      "outputs": [
        {
          "name": "",
          "type": "string"
        }
      ],
      "payable": false,
      "stateMutability": "view",
      "type": "function"
    },
    {
      "constant": true,
      "inputs": [],
      "name": "baseTokenURI",
      "outputs": [
        {
          "name": "",
          "type": "string"
        }
      ],
      "payable": false,
      "stateMutability": "view",
      "type": "function"
    },
    {
      "constant": true,
      "inputs": [
        {
          "name": "owner",
          "type": "address"
        },
        {
          "name": "operator",
          "type": "address"
        }
      ],
      "name": "isApprovedForAll",
      "outputs": [
        {
          "name": "",
          "type": "bool"
        }
      ],
      "payable": false,
      "stateMutability": "view",
      "type": "function"
    },
    {
      "constant": false,
      "inputs": [
        {
          "name": "newOwner",
          "type": "address"
        }
      ],
      "name": "transferOwnership",
      "outputs": [],
      "payable": false,
      "stateMutability": "nonpayable",
      "type": "function"
    },
    {
      "constant": false,
      "inputs": [
        {
          "name": "a",
          "type": "uint256[2]"
        },
        {
          "name": "a_p",
          "type": "uint256[2]"
        },
        {
          "name": "b",
          "type": "uint256[2][2]"
        },
        {
          "name": "b_p",
          "type": "uint256[2]"
        },
        {
          "name": "c",
          "type": "uint256[2]"
        },
        {
          "name": "c_p",
          "type": "uint256[2]"
        },
        {
          "name": "h",
          "type": "uint256[2]"
        },
        {
          "name": "k",
          "type": "uint256[2]"
        },
        {
          "name": "input",
          "type": "uint256[2]"
        }
      ],
      "name": "verifyTx",
      "outputs": [
        {
          "name": "r",
          "type": "bool"
        }
      ],
      "payable": false,
      "stateMutability": "nonpayable",
      "type": "function"
    },
    {
      "inputs": [
        {
          "name": "verifierAddress",
          "type": "address"
        }
      ],
      "payable": false,
      "stateMutability": "nonpayable",
      "type": "constructor"
    },
    {
      "anonymous": false,
      "inputs": [
        {
          "indexed": false,
          "name": "solution",
          "type": "address"
        }
      ],
      "name": "SolutionAdded",
      "type": "event"
    },
    {
      "anonymous": false,
      "inputs": [
        {
          "indexed": false,
          "name": "s",
          "type": "string"
        }
      ],
      "name": "Verified",
      "type": "event"
    },
    {
      "anonymous": false,
      "inputs": [
        {
          "indexed": true,
          "name": "from",
          "type": "address"
        },
        {
          "indexed": true,
          "name": "to",
          "type": "address"
        },
        {
          "indexed": true,
          "name": "tokenId",
          "type": "uint256"
        }
      ],
      "name": "Transfer",
      "type": "event"
    },
    {
      "anonymous": false,
      "inputs": [
        {
          "indexed": true,
          "name": "owner",
          "type": "address"
        },
        {
          "indexed": true,
          "name": "approved",
          "type": "address"
        },
        {
          "indexed": true,
          "name": "tokenId",
          "type": "uint256"
        }
      ],
      "name": "Approval",
      "type": "event"
    },
    {
      "anonymous": false,
      "inputs": [
        {
          "indexed": true,
          "name": "owner",
          "type": "address"
        },
        {
          "indexed": true,
          "name": "operator",
          "type": "address"
        },
        {
          "indexed": false,
          "name": "approved",
          "type": "bool"
        }
      ],
      "name": "ApprovalForAll",
      "type": "event"
    },
    {
      "anonymous": false,
      "inputs": [
        {
          "indexed": false,
          "name": "account",
          "type": "address"
        }
      ],
      "name": "Paused",
      "type": "event"
    },
    {
      "anonymous": false,
      "inputs": [
        {
          "indexed": false,
          "name": "account",
          "type": "address"
        }
      ],
      "name": "Unpaused",
      "type": "event"
    },
    {
      "anonymous": false,
      "inputs": [
        {
          "indexed": false,
          "name": "newOwner",
          "type": "address"
        }
      ],
      "name": "OwnershipTransfered",
      "type": "event"
    },
    {
      "constant": false,
      "inputs": [
        {
          "name": "a",
          "type": "uint256[2]"
        },
        {
          "name": "a_p",
          "type": "uint256[2]"
        },
        {
          "name": "b",
          "type": "uint256[2][2]"
        },
        {
          "name": "b_p",
          "type": "uint256[2]"
        },
        {
          "name": "c",
          "type": "uint256[2]"
        },
        {
          "name": "c_p",
          "type": "uint256[2]"
        },
        {
          "name": "h",
          "type": "uint256[2]"
        },
        {
          "name": "k",
          "type": "uint256[2]"
        },
        {
          "name": "input",
          "type": "uint256[2]"
        },
        {
          "name": "solutionAddress",
          "type": "address"
        },
        {
          "name": "tokenId",
          "type": "uint256"
        }
      ],
      "name": "addSolution",
      "outputs": [
        {
          "name": "",
          "type": "bool"
        }
      ],
      "payable": false,
      "stateMutability": "nonpayable",
      "type": "function"
    },
    {
      "constant": false,
      "inputs": [
        {
          "name": "solutionAddress",
          "type": "address"
        },
        {
          "name": "tokenId",
          "type": "uint256"
        }
      ],
      "name": "mint",
      "outputs": [
        {
          "name": "",
          "type": "bool"
        }
      ],
      "payable": false,
      "stateMutability": "nonpayable",
      "type": "function"
    }
  ],
  "bytecode": "0x60806040523480156200001157600080fd5b5060405160208062005833833981018060405260208110156200003357600080fd5b81019080805190602001909291905050506040518060400160405280600a81526020017f5265616c457374617465000000000000000000000000000000000000000000008152506040518060400160405280600481526020017f5245414c000000000000000000000000000000000000000000000000000000008152506040518060600160405280603f8152602001620057f4603f9139336000806101000a81548173ffffffffffffffffffffffffffffffffffffffff021916908373ffffffffffffffffffffffffffffffffffffffff1602179055507f9736aeb40a8f30a5c076a9897428fdf7ec0e909c96dce63533664c9b5c835da66000809054906101000a900473ffffffffffffffffffffffffffffffffffffffff16604051808273ffffffffffffffffffffffffffffffffffffffff1673ffffffffffffffffffffffffffffffffffffffff16815260200191505060405180910390a160008060146101000a81548160ff021916908315150217905550620001c06301ffc9a760e01b6200029e60201b60201c565b620001d86380ac58cd60e01b6200029e60201b60201c565b620001f063780e9d6360e01b6200029e60201b60201c565b82600f90805190602001906200020892919062000340565b5081601090805190602001906200022192919062000340565b5080601190805190602001906200023a92919062000340565b5062000253635b5e139f60e01b6200029e60201b60201c565b50505080601360006101000a81548173ffffffffffffffffffffffffffffffffffffffff021916908373ffffffffffffffffffffffffffffffffffffffff16021790555050620003ef565b63ffffffff60e01b817bffffffffffffffffffffffffffffffffffffffffffffffffffffffff191614151515620002d457600080fd5b6001806000837bffffffffffffffffffffffffffffffffffffffffffffffffffffffff19167bffffffffffffffffffffffffffffffffffffffffffffffffffffffff1916815260200190815260200160002060006101000a81548160ff02191690831515021790555050565b828054600181600116156101000203166002900490600052602060002090601f016020900481019282601f106200038357805160ff1916838001178555620003b4565b82800160010185558215620003b4579182015b82811115620003b357825182559160200191906001019062000396565b5b509050620003c39190620003c7565b5090565b620003ec91905b80821115620003e8576000816000905550600101620003ce565b5090565b90565b6153f580620003ff6000396000f3fe608060405234801561001057600080fd5b50600436106101735760003560e01c806342842e0e116100de578063a22cb46511610097578063d547cfb711610071578063d547cfb714610de8578063e985e9c514610e6b578063f2fde38b14610ee7578063fe01ff6214610f2b57610173565b8063a22cb46514610bec578063b88d4fde14610c3c578063c87b56dd14610d4157610173565b806342842e0e146109a95780634f6ccce714610a175780636352211e14610a5957806370a0823114610ac75780638da5cb5b14610b1f57806395d89b4114610b6957610173565b80631cbb5733116101305780631cbb57331461036a57806323b872dd1461065257806327dc297e146106c05780632f745c591461078557806338bbfa50146107e757806340c10f191461094357610173565b806301ffc9a71461017857806306fdde03146101dd578063081812fc14610260578063095ea7b3146102ce57806316c38b3c1461031c57806318160ddd1461034c575b600080fd5b6101c36004803603602081101561018e57600080fd5b8101908080357bffffffffffffffffffffffffffffffffffffffffffffffffffffffff191690602001909291905050506111e9565b604051808215151515815260200191505060405180910390f35b6101e5611251565b6040518080602001828103825283818151815260200191508051906020019080838360005b8381101561022557808201518184015260208101905061020a565b50505050905090810190601f1680156102525780820380516001836020036101000a031916815260200191505b509250505060405180910390f35b61028c6004803603602081101561027657600080fd5b81019080803590602001909291905050506112f3565b604051808273ffffffffffffffffffffffffffffffffffffffff1673ffffffffffffffffffffffffffffffffffffffff16815260200191505060405180910390f35b61031a600480360360408110156102e457600080fd5b81019080803573ffffffffffffffffffffffffffffffffffffffff16906020019092919080359060200190929190505050611330565b005b61034a6004803603602081101561033257600080fd5b810190808035151590602001909291905050506114d7565b005b61035461166d565b6040518082815260200191505060405180910390f35b61063860048036036102c081101561038157600080fd5b8101908080604001906002806020026040519081016040528092919082600260200280828437600081840152601f19601f820116905080830192505050505050919291929080604001906002806020026040519081016040528092919082600260200280828437600081840152601f19601f82011690508083019250505050505091929192908060800190600280602002604051908101604052809291906000905b82821015610477578382604002016002806020026040519081016040528092919082600260200280828437600081840152601f19601f82011690508083019250505050505081526020019060010190610423565b50505050919291929080604001906002806020026040519081016040528092919082600260200280828437600081840152601f19601f820116905080830192505050505050919291929080604001906002806020026040519081016040528092919082600260200280828437600081840152601f19601f820116905080830192505050505050919291929080604001906002806020026040519081016040528092919082600260200280828437600081840152601f19601f820116905080830192505050505050919291929080604001906002806020026040519081016040528092919082600260200280828437600081840152601f19601f820116905080830192505050505050919291929080604001906002806020026040519081016040528092919082600260200280828437600081840152601f19601f820116905080830192505050505050919291929080604001906002806020026040519081016040528092919082600260200280828437600081840152601f19601f8201169050808301925050505050509192919290803573ffffffffffffffffffffffffffffffffffffffff1690602001909291908035906020019092919050505061167a565b604051808215151515815260200191505060405180910390f35b6106be6004803603606081101561066857600080fd5b81019080803573ffffffffffffffffffffffffffffffffffffffff169060200190929190803573ffffffffffffffffffffffffffffffffffffffff169060200190929190803590602001909291905050506119f4565b005b610783600480360360408110156106d657600080fd5b8101908080359060200190929190803590602001906401000000008111156106fd57600080fd5b82018360208201111561070f57600080fd5b8035906020019184600183028401116401000000008311171561073157600080fd5b91908080601f016020809104026020016040519081016040528093929190818152602001838380828437600081840152601f19601f820116905080830192505050505050509192919290505050611a19565b005b6107d16004803603604081101561079b57600080fd5b81019080803573ffffffffffffffffffffffffffffffffffffffff16906020019092919080359060200190929190505050611a5c565b6040518082815260200191505060405180910390f35b610941600480360360608110156107fd57600080fd5b81019080803590602001909291908035906020019064010000000081111561082457600080fd5b82018360208201111561083657600080fd5b8035906020019184600183028401116401000000008311171561085857600080fd5b91908080601f016020809104026020016040519081016040528093929190818152602001838380828437600081840152601f19601f820116905080830192505050505050509192919290803590602001906401000000008111156108bb57600080fd5b8201836020820111156108cd57600080fd5b803590602001918460018302840111640100000000831117156108ef57600080fd5b91908080601f016020809104026020016040519081016040528093929190818152602001838380828437600081840152601f19601f820116905080830192505050505050509192919290505050611ad3565b005b61098f6004803603604081101561095957600080fd5b81019080803573ffffffffffffffffffffffffffffffffffffffff16906020019092919080359060200190929190505050611ad8565b604051808215151515815260200191505060405180910390f35b610a15600480360360608110156109bf57600080fd5b81019080803573ffffffffffffffffffffffffffffffffffffffff169060200190929190803573ffffffffffffffffffffffffffffffffffffffff169060200190929190803590602001909291905050506121b2565b005b610a4360048036036020811015610a2d57600080fd5b81019080803590602001909291905050506121d2565b6040518082815260200191505060405180910390f35b610a8560048036036020811015610a6f57600080fd5b810190808035906020019092919050505061220a565b604051808273ffffffffffffffffffffffffffffffffffffffff1673ffffffffffffffffffffffffffffffffffffffff16815260200191505060405180910390f35b610b0960048036036020811015610add57600080fd5b81019080803573ffffffffffffffffffffffffffffffffffffffff169060200190929190505050612247565b6040518082815260200191505060405180910390f35b610b27612297565b604051808273ffffffffffffffffffffffffffffffffffffffff1673ffffffffffffffffffffffffffffffffffffffff16815260200191505060405180910390f35b610b716122c0565b6040518080602001828103825283818151815260200191508051906020019080838360005b83811015610bb1578082015181840152602081019050610b96565b50505050905090810190601f168015610bde5780820380516001836020036101000a031916815260200191505b509250505060405180910390f35b610c3a60048036036040811015610c0257600080fd5b81019080803573ffffffffffffffffffffffffffffffffffffffff169060200190929190803515159060200190929190505050612362565b005b610d3f60048036036080811015610c5257600080fd5b81019080803573ffffffffffffffffffffffffffffffffffffffff169060200190929190803573ffffffffffffffffffffffffffffffffffffffff1690602001909291908035906020019092919080359060200190640100000000811115610cb957600080fd5b820183602082011115610ccb57600080fd5b80359060200191846001830284011164010000000083111715610ced57600080fd5b91908080601f016020809104026020016040519081016040528093929190818152602001838380828437600081840152601f19601f82011690508083019250505050505050919291929050505061249e565b005b610d6d60048036036020811015610d5757600080fd5b81019080803590602001909291905050506124c6565b6040518080602001828103825283818151815260200191508051906020019080838360005b83811015610dad578082015181840152602081019050610d92565b50505050905090810190601f168015610dda5780820380516001836020036101000a031916815260200191505b509250505060405180910390f35b610df061258f565b6040518080602001828103825283818151815260200191508051906020019080838360005b83811015610e30578082015181840152602081019050610e15565b50505050905090810190601f168015610e5d5780820380516001836020036101000a031916815260200191505b509250505060405180910390f35b610ecd60048036036040811015610e8157600080fd5b81019080803573ffffffffffffffffffffffffffffffffffffffff169060200190929190803573ffffffffffffffffffffffffffffffffffffffff169060200190929190505050612631565b604051808215151515815260200191505060405180910390f35b610f2960048036036020811015610efd57600080fd5b81019080803573ffffffffffffffffffffffffffffffffffffffff1690602001909291905050506126c5565b005b6111cf6004803603610280811015610f4257600080fd5b8101908080604001906002806020026040519081016040528092919082600260200280828437600081840152601f19601f820116905080830192505050505050919291929080604001906002806020026040519081016040528092919082600260200280828437600081840152601f19601f82011690508083019250505050505091929192908060800190600280602002604051908101604052809291906000905b82821015611038578382604002016002806020026040519081016040528092919082600260200280828437600081840152601f19601f82011690508083019250505050505081526020019060010190610fe4565b50505050919291929080604001906002806020026040519081016040528092919082600260200280828437600081840152601f19601f820116905080830192505050505050919291929080604001906002806020026040519081016040528092919082600260200280828437600081840152601f19601f820116905080830192505050505050919291929080604001906002806020026040519081016040528092919082600260200280828437600081840152601f19601f820116905080830192505050505050919291929080604001906002806020026040519081016040528092919082600260200280828437600081840152601f19601f820116905080830192505050505050919291929080604001906002806020026040519081016040528092919082600260200280828437600081840152601f19601f820116905080830192505050505050919291929080604001906002806020026040519081016040528092919082600260200280828437600081840152601f19601f82011690508083019250505050505091929192905050506128bd565b604051808215151515815260200191505060405180910390f35b600060016000837bffffffffffffffffffffffffffffffffffffffffffffffffffffffff19167bffffffffffffffffffffffffffffffffffffffffffffffffffffffff1916815260200190815260200160002060009054906101000a900460ff169050919050565b6060600f8054600181600116156101000203166002900480601f0160208091040260200160405190810160405280929190818152602001828054600181600116156101000203166002900480156112e95780601f106112be576101008083540402835291602001916112e9565b820191906000526020600020905b8154815290600101906020018083116112cc57829003601f168201915b5050505050905090565b60006003600083815260200190815260200160002060009054906101000a900473ffffffffffffffffffffffffffffffffffffffff169050919050565b600061133b8261220a565b90508073ffffffffffffffffffffffffffffffffffffffff168373ffffffffffffffffffffffffffffffffffffffff16141515156113c4576040517f08c379a00000000000000000000000000000000000000000000000000000000081526004018080602001828103825260218152602001806153866021913960400191505060405180910390fd5b6113ce3383612c76565b1515611425576040517f08c379a000000000000000000000000000000000000000000000000000000000815260040180806020018281038252602a815260200180615319602a913960400191505060405180910390fd5b826003600084815260200190815260200160002060006101000a81548173ffffffffffffffffffffffffffffffffffffffff021916908373ffffffffffffffffffffffffffffffffffffffff160217905550818373ffffffffffffffffffffffffffffffffffffffff168273ffffffffffffffffffffffffffffffffffffffff167f8c5be1e5ebec7d5bd14f71427d1e84f3dd0314c0f7b2291e5b200ac8c7c3b92560405160405180910390a4505050565b6000809054906101000a900473ffffffffffffffffffffffffffffffffffffffff1673ffffffffffffffffffffffffffffffffffffffff163373ffffffffffffffffffffffffffffffffffffffff1614151561157e576040517f08c379a00000000000000000000000000000000000000000000000000000000081526004018080602001828103825260238152602001806153a76023913960400191505060405180910390fd5b80600060146101000a81548160ff0219169083151502179055508015611606577f62e78cea01bee320cd4e420270b5ea74000d11b0c9f74754ebdbfc544b05a25833604051808273ffffffffffffffffffffffffffffffffffffffff1673ffffffffffffffffffffffffffffffffffffffff16815260200191505060405180910390a161166a565b7f5db9ee0a495bf2e6ff9c91a7834c1ba4fdd244a5e8aa4e537bd38aeae4b073aa33604051808273ffffffffffffffffffffffffffffffffffffffff1673ffffffffffffffffffffffffffffffffffffffff16815260200191505060405180910390a15b50565b6000600880549050905090565b6000808c8b8a8787876040516020018087600260200280838360005b838110156116b1578082015181840152602081019050611696565b505050509050018660026000925b818410156117055782846020020151600260200280838360005b838110156116f45780820151818401526020810190506116d9565b5050505090500192600101926116bf565b9250505085600260200280838360005b83811015611730578082015181840152602081019050611715565b5050505090500184600260200280838360005b8381101561175e578082015181840152602081019050611743565b505050509050018373ffffffffffffffffffffffffffffffffffffffff1673ffffffffffffffffffffffffffffffffffffffff1660601b815260140182815260200196505050505050506040516020818303038152906040528051906020012090506117c8614eb4565b6040518061018001604052808f81526020018e81526020018d81526020018c81526020018b81526020018a81526020018981526020018881526020018781526020018673ffffffffffffffffffffffffffffffffffffffff168152602001858152602001838152509050806014600086815260200190815260200160002060008201518160000190600261185d929190614f64565b50602082015181600201906002611875929190614f64565b5060408201518160040190600261188d929190614fa4565b506060820151816008019060026118a5929190614f64565b50608082015181600a019060026118bd929190614f64565b5060a082015181600c019060026118d5929190614f64565b5060c082015181600e019060026118ed929190614f64565b5060e082015181601001906002611905929190614f64565b506101008201518160120190600261191e929190614f64565b506101208201518160140160006101000a81548173ffffffffffffffffffffffffffffffffffffffff021916908373ffffffffffffffffffffffffffffffffffffffff160217905550610140820151816015015561016082015181601601559050507f209e782baeeecf4956303cb3e836fdf3f7279e6729ebccf2d309c292aedd3aeb33604051808273ffffffffffffffffffffffffffffffffffffffff1673ffffffffffffffffffffffffffffffffffffffff16815260200191505060405180910390a150509b9a5050505050505050505050565b6119fe3382612c76565b1515611a0957600080fd5b611a14838383612d0b565b505050565b611a58828260006040519080825280601f01601f191660200182016040528015611a525781602001600182028038833980820191505090505b50611ad3565b5050565b6000611a6783612247565b82101515611a7457600080fd5b600660008473ffffffffffffffffffffffffffffffffffffffff1673ffffffffffffffffffffffffffffffffffffffff16815260200190815260200160002082815481101515611ac057fe5b9060005260206000200154905092915050565b505050565b60008073ffffffffffffffffffffffffffffffffffffffff166014600084815260200190815260200160002060140160009054906101000a900473ffffffffffffffffffffffffffffffffffffffff1673ffffffffffffffffffffffffffffffffffffffff1614151515611b4b57600080fd5b611b53614eb4565b601460008481526020019081526020016000206040518061018001604052908160008201600280602002604051908101604052809291908260028015611bae576020028201915b815481526020019060010190808311611b9a575b5050505050815260200160028201600280602002604051908101604052809291908260028015611bf3576020028201915b815481526020019060010190808311611bdf575b5050505050815260200160048201600280602002604051908101604052809291906000905b82821015611c7157838260020201600280602002604051908101604052809291908260028015611c5d576020028201915b815481526020019060010190808311611c49575b505050505081526020019060010190611c18565b50505050815260200160088201600280602002604051908101604052809291908260028015611cb5576020028201915b815481526020019060010190808311611ca1575b50505050508152602001600a8201600280602002604051908101604052809291908260028015611cfa576020028201915b815481526020019060010190808311611ce6575b50505050508152602001600c8201600280602002604051908101604052809291908260028015611d3f576020028201915b815481526020019060010190808311611d2b575b50505050508152602001600e8201600280602002604051908101604052809291908260028015611d84576020028201915b815481526020019060010190808311611d70575b5050505050815260200160108201600280602002604051908101604052809291908260028015611dc9576020028201915b815481526020019060010190808311611db5575b5050505050815260200160128201600280602002604051908101604052809291908260028015611e0e576020028201915b815481526020019060010190808311611dfa575b505050505081526020016014820160009054906101000a900473ffffffffffffffffffffffffffffffffffffffff1673ffffffffffffffffffffffffffffffffffffffff1673ffffffffffffffffffffffffffffffffffffffff1681526020016015820154815260200160168201548152505090506000601360009054906101000a900473ffffffffffffffffffffffffffffffffffffffff1673ffffffffffffffffffffffffffffffffffffffff1663fe01ff62836000015184602001518560400151866060015187608001518860a001518960c001518a60e001518b61010001516040518a63ffffffff1660e01b8152600401808a600260200280838360005b83811015611f2b578082015181840152602081019050611f10565b5050505090500189600260200280838360005b83811015611f59578082015181840152602081019050611f3e565b505050509050018860026000925b81841015611fad5782846020020151600260200280838360005b83811015611f9c578082015181840152602081019050611f81565b505050509050019260010192611f67565b9250505087600260200280838360005b83811015611fd8578082015181840152602081019050611fbd565b5050505090500186600260200280838360005b83811015612006578082015181840152602081019050611feb565b5050505090500185600260200280838360005b83811015612034578082015181840152602081019050612019565b5050505090500184600260200280838360005b83811015612062578082015181840152602081019050612047565b5050505090500183600260200280838360005b83811015612090578082015181840152602081019050612075565b5050505090500182600260200280838360005b838110156120be5780820151818401526020810190506120a3565b505050509050019950505050505050505050602060405180830381600087803b1580156120ea57600080fd5b505af11580156120fe573d6000803e3d6000fd5b505050506040513d602081101561211457600080fd5b81019080805190602001909291905050509050801561217457600160156000846101600151815260200190815260200160002060006101000a81548160ff0219169083151502179055506121688585612d2f565b506001925050506121ac565b600160156000846101600151815260200190815260200160002060006101000a81548160ff0219169083151502179055506000925050505b92915050565b6121cd8383836040518060200160405280600081525061249e565b505050565b60006121dc61166d565b821015156121e957600080fd5b6008828154811015156121f857fe5b90600052602060002001549050919050565b60006002600083815260200190815260200160002060009054906101000a900473ffffffffffffffffffffffffffffffffffffffff169050919050565b6000612290600460008473ffffffffffffffffffffffffffffffffffffffff1673ffffffffffffffffffffffffffffffffffffffff168152602001908152602001600020612df5565b9050919050565b60008060009054906101000a900473ffffffffffffffffffffffffffffffffffffffff16905090565b606060108054600181600116156101000203166002900480601f0160208091040260200160405190810160405280929190818152602001828054600181600116156101000203166002900480156123585780601f1061232d57610100808354040283529160200191612358565b820191906000526020600020905b81548152906001019060200180831161233b57829003601f168201915b5050505050905090565b3373ffffffffffffffffffffffffffffffffffffffff168273ffffffffffffffffffffffffffffffffffffffff161415151561239d57600080fd5b80600560003373ffffffffffffffffffffffffffffffffffffffff1673ffffffffffffffffffffffffffffffffffffffff16815260200190815260200160002060008473ffffffffffffffffffffffffffffffffffffffff1673ffffffffffffffffffffffffffffffffffffffff16815260200190815260200160002060006101000a81548160ff0219169083151502179055508173ffffffffffffffffffffffffffffffffffffffff163373ffffffffffffffffffffffffffffffffffffffff167f17307eab39ab6107e8899845ad3d59bd9653f200f220920489ca2b5937696c3183604051808215151515815260200191505060405180910390a35050565b6124a98484846119f4565b6124b584848484612e03565b15156124c057600080fd5b50505050565b60606124d182612fee565b15156124dc57600080fd5b601260008381526020019081526020016000208054600181600116156101000203166002900480601f0160208091040260200160405190810160405280929190818152602001828054600181600116156101000203166002900480156125835780601f1061255857610100808354040283529160200191612583565b820191906000526020600020905b81548152906001019060200180831161256657829003601f168201915b50505050509050919050565b606060118054600181600116156101000203166002900480601f0160208091040260200160405190810160405280929190818152602001828054600181600116156101000203166002900480156126275780601f106125fc57610100808354040283529160200191612627565b820191906000526020600020905b81548152906001019060200180831161260a57829003601f168201915b5050505050905090565b6000600560008473ffffffffffffffffffffffffffffffffffffffff1673ffffffffffffffffffffffffffffffffffffffff16815260200190815260200160002060008373ffffffffffffffffffffffffffffffffffffffff1673ffffffffffffffffffffffffffffffffffffffff16815260200190815260200160002060009054906101000a900460ff16905092915050565b6000809054906101000a900473ffffffffffffffffffffffffffffffffffffffff1673ffffffffffffffffffffffffffffffffffffffff163373ffffffffffffffffffffffffffffffffffffffff1614151561276c576040517f08c379a00000000000000000000000000000000000000000000000000000000081526004018080602001828103825260238152602001806153a76023913960400191505060405180910390fd5b80600073ffffffffffffffffffffffffffffffffffffffff168173ffffffffffffffffffffffffffffffffffffffff16141515156127f5576040517f08c379a00000000000000000000000000000000000000000000000000000000081526004018080602001828103825260238152602001806153a76023913960400191505060405180910390fd5b816000806101000a81548173ffffffffffffffffffffffffffffffffffffffff021916908373ffffffffffffffffffffffffffffffffffffffff1602179055507f9736aeb40a8f30a5c076a9897428fdf7ec0e909c96dce63533664c9b5c835da66000809054906101000a900473ffffffffffffffffffffffffffffffffffffffff16604051808273ffffffffffffffffffffffffffffffffffffffff1673ffffffffffffffffffffffffffffffffffffffff16815260200191505060405180910390a15050565b60006128c7614ff4565b60405180604001604052808c60006002811015156128e157fe5b602002015181526020018c60016002811015156128fa57fe5b6020020151815250816000018190525060405180604001604052808b600060028110151561292457fe5b602002015181526020018b600160028110151561293d57fe5b60200201518152508160200181905250604051806040016040528060405180604001604052808c600060028110151561297257fe5b6020020151600060028110151561298557fe5b602002015181526020018c600060028110151561299e57fe5b602002015160016002811015156129b157fe5b6020020151815250815260200160405180604001604052808c60016002811015156129d857fe5b602002015160006002811015156129eb57fe5b602002015181526020018c6001600281101515612a0457fe5b60200201516001600281101515612a1757fe5b602002015181525081525081604001819052506040518060400160405280896000600281101515612a4457fe5b60200201518152602001896001600281101515612a5d57fe5b602002015181525081606001819052506040518060400160405280886000600281101515612a8757fe5b60200201518152602001886001600281101515612aa057fe5b602002015181525081608001819052506040518060400160405280876000600281101515612aca57fe5b60200201518152602001876001600281101515612ae357fe5b60200201518152508160a001819052506040518060400160405280866000600281101515612b0d57fe5b60200201518152602001866001600281101515612b2657fe5b60200201518152508160e001819052506040518060400160405280856000600281101515612b5057fe5b60200201518152602001856001600281101515612b6957fe5b60200201518152508160c0018190525060606002604051908082528060200260200182016040528015612bab5781602001602082028038833980820191505090505b50905060008090505b6002811015612bf9578481600281101515612bcb57fe5b60200201518282815181101515612bde57fe5b90602001906020020181815250508080600101915050612bb4565b506000612c068284613060565b1415612c62577f3f3cfdb26fb5f9f1786ab4f1a1f9cd4c0b5e726cbdfc26e495261731aad44e396040518080602001828103825260228152602001806153646022913960400191505060405180910390a1600192505050612c69565b6000925050505b9998505050505050505050565b600080612c828361220a565b90508073ffffffffffffffffffffffffffffffffffffffff168473ffffffffffffffffffffffffffffffffffffffff161480612cf157508373ffffffffffffffffffffffffffffffffffffffff16612cd9846112f3565b73ffffffffffffffffffffffffffffffffffffffff16145b80612d025750612d018185612631565b5b91505092915050565b612d168383836132a0565b612d20838261347d565b612d2a8282613621565b505050565b60008060009054906101000a900473ffffffffffffffffffffffffffffffffffffffff1673ffffffffffffffffffffffffffffffffffffffff163373ffffffffffffffffffffffffffffffffffffffff16141515612dd8576040517f08c379a00000000000000000000000000000000000000000000000000000000081526004018080602001828103825260238152602001806153a76023913960400191505060405180910390fd5b612de283836136e8565b612deb82613709565b6001905092915050565b600081600001549050919050565b6000612e248473ffffffffffffffffffffffffffffffffffffffff1661385c565b1515612e335760019050612fe6565b60008473ffffffffffffffffffffffffffffffffffffffff1663150b7a02338887876040518563ffffffff1660e01b8152600401808573ffffffffffffffffffffffffffffffffffffffff1673ffffffffffffffffffffffffffffffffffffffff1681526020018473ffffffffffffffffffffffffffffffffffffffff1673ffffffffffffffffffffffffffffffffffffffff16815260200183815260200180602001828103825283818151815260200191508051906020019080838360005b83811015612f0e578082015181840152602081019050612ef3565b50505050905090810190601f168015612f3b5780820380516001836020036101000a031916815260200191505b5095505050505050602060405180830381600087803b158015612f5d57600080fd5b505af1158015612f71573d6000803e3d6000fd5b505050506040513d6020811015612f8757600080fd5b8101908080519060200190929190505050905063150b7a0260e01b7bffffffffffffffffffffffffffffffffffffffffffffffffffffffff1916817bffffffffffffffffffffffffffffffffffffffffffffffffffffffff1916149150505b949350505050565b6000806002600084815260200190815260200160002060009054906101000a900473ffffffffffffffffffffffffffffffffffffffff169050600073ffffffffffffffffffffffffffffffffffffffff168173ffffffffffffffffffffffffffffffffffffffff161415915050919050565b600061306a615069565b6130726138a7565b90508060e0015151600185510114151561308b57600080fd5b6130936150d8565b6040518060400160405280600081526020016000815250905060008090505b855181101561311257613103826130fe8560e00151600185018151811015156130d757fe5b9060200190602002015189858151811015156130ef57fe5b90602001906020020151613ee8565b613f84565b915080806001019150506130b2565b50613139818360e00151600081518110151561312a57fe5b90602001906020020151613f84565b9050613162846000015183600001516131558760200151614041565b61315d6140dd565b6141a7565b15156131735760019250505061329a565b61319a8260200151856040015161318d8760600151614041565b6131956140dd565b6141a7565b15156131ab5760029250505061329a565b6131d2846080015183604001516131c58760a00151614041565b6131cd6140dd565b6141a7565b15156131e35760039250505061329a565b61322f8460c00151836060015161321361320e856132098a600001518b60800151613f84565b613f84565b614041565b8560a001516132258760800151614041565b89604001516142b3565b15156132405760049250505061329a565b613282613251828660000151613f84565b85604001516132638760e00151614041565b8560c001516132758960800151614041565b61327d6140dd565b6142b3565b15156132935760059250505061329a565b6000925050505b92915050565b60006132ab8261220a565b90508073ffffffffffffffffffffffffffffffffffffffff168473ffffffffffffffffffffffffffffffffffffffff16141515613333576040517f08c379a00000000000000000000000000000000000000000000000000000000081526004018080602001828103825260218152602001806153436021913960400191505060405180910390fd5b61333c826143fb565b613383600460008673ffffffffffffffffffffffffffffffffffffffff1673ffffffffffffffffffffffffffffffffffffffff1681526020019081526020016000206144bb565b6133ca600460008573ffffffffffffffffffffffffffffffffffffffff1673ffffffffffffffffffffffffffffffffffffffff1681526020019081526020016000206144de565b826002600084815260200190815260200160002060006101000a81548173ffffffffffffffffffffffffffffffffffffffff021916908373ffffffffffffffffffffffffffffffffffffffff160217905550818373ffffffffffffffffffffffffffffffffffffffff168573ffffffffffffffffffffffffffffffffffffffff167fddf252ad1be2c89b69c2b068fc378daa952ba7f163c4a11628f55a4df523b3ef60405160405180910390a450505050565b60006134d56001600660008673ffffffffffffffffffffffffffffffffffffffff1673ffffffffffffffffffffffffffffffffffffffff168152602001908152602001600020805490506144f490919063ffffffff16565b905060006007600084815260200190815260200160002054905081811415156135c8576000600660008673ffffffffffffffffffffffffffffffffffffffff1673ffffffffffffffffffffffffffffffffffffffff1681526020019081526020016000208381548110151561354657fe5b9060005260206000200154905080600660008773ffffffffffffffffffffffffffffffffffffffff1673ffffffffffffffffffffffffffffffffffffffff168152602001908152602001600020838154811015156135a057fe5b9060005260206000200181905550816007600083815260200190815260200160002081905550505b600660008573ffffffffffffffffffffffffffffffffffffffff1673ffffffffffffffffffffffffffffffffffffffff16815260200190815260200160002080548091906001900361361a91906150f2565b5050505050565b600660008373ffffffffffffffffffffffffffffffffffffffff1673ffffffffffffffffffffffffffffffffffffffff168152602001908152602001600020805490506007600083815260200190815260200160002081905550600660008373ffffffffffffffffffffffffffffffffffffffff1673ffffffffffffffffffffffffffffffffffffffff1681526020019081526020016000208190806001815401808255809150509060018203906000526020600020016000909192909190915055505050565b6136f2828261453e565b6136fc8282613621565b613705816146b5565b5050565b61371281612fee565b1515613786576040517f08c379a00000000000000000000000000000000000000000000000000000000081526004018080602001828103825260158152602001807f546f6b656e494420646f65736e2774206578697374000000000000000000000081525060200191505060405180910390fd5b61383260118054600181600116156101000203166002900480601f01602080910402602001604051908101604052809291908181526020018280546001816001161561010002031660029004801561381f5780601f106137f45761010080835404028352916020019161381f565b820191906000526020600020905b81548152906001019060200180831161380257829003601f168201915b505050505061382d83614701565b61483b565b60126000838152602001908152602001600020908051906020019061385892919061511e565b5050565b60008060007fc5d2460186f7233c927e7db2dcc703c0e500b653ca82273b7bfad8045d85a47060001b9050833f915080821415801561389e57506000801b8214155b92505050919050565b6138af615069565b604051806040016040528060405180604001604052807f1611c2c82f4d3b9991cd0ea0baa3e1d7b86b1c6268afc1ee95cef391bdc9b5ed81526020017f11acaa6f937903f82f9c856526c51d0e2c831e50a1b336e0e94fe4a8b9e75679815250815260200160405180604001604052807f10ef9138bd56e67271083081389ac571354664cfdce8e7ad58563037d3a23dbd81526020017f22d26fb322a80cfe8e492c8b3851b2a2446699878f3746a82ccc7c94b68b9dcc815250815250816000018190525060405180604001604052807f283131f741c69294aac569ac498f9e020c93bd625ae15593f1fb11178afe416681526020017f054018c927c24563a5b7164938619e654766abcb62d846277c48b125f364d9078152508160200181905250604051806040016040528060405180604001604052807f17cd7a508b21751f1283ba55ebb4fcf8445e9f77304b745b666b31d2ea2c773281526020017f258641d0e2ef578f591ec8fa2ee2f28dd43504c0f13957db1ab625d144739c4e815250815260200160405180604001604052807f18bdcd4cf5a5ecb5de1184945700ca24b3c0d61c64dc8219a8a59313009a7d9d81526020017f1e5720dc13ad5cc79c0498a565e30477d99a5e3f8d4dcb80e8bbd8435e11b3fe8152508152508160400181905250604051806040016040528060405180604001604052807f2823f4384feef8c5ccfd386edf2c16a27fae9eaa0132167302c6f70cf88de0c381526020017f2e9b00f7a1160ea4d1e8009a3430b04d8f2cbf64994162326ec3309f831a80ae815250815260200160405180604001604052807f02eef9e3eed08e2e055f5eaba6e92d8e00ae861251ebc7e5d0767e21348165a281526020017f2d0fd160863c82b9303973e043535f6e40eaeceaefde424b536b51551044d014815250815250816060018190525060405180604001604052807f091ac6b3872ffbfd856fe3354d8ca99e4674ff4d1802f6ef01f9bfeb19ba7eec81526020017f26b0c8a28b44b575d788d5e1da88903f43e76386c1c5844eb9cea9953832810c8152508160800181905250604051806040016040528060405180604001604052807f15cd795c03f85237a4f7f2a76f169b67e6677a40181ca784fa59cf0eae61d32f81526020017f22cabd29ed777613ce8f5d62c211377b71dd674b366c86758fbfcea998e68359815250815260200160405180604001604052807f1e084b17280bf8e83c51ccedd75f05e2a7f12a61f984ad11fef2384ec4afd33281526020017f25f512b120627274b84a7d30a8a8181c0ba5d68f3e47d02af5ef9e07b83ce8558152508152508160a00181905250604051806040016040528060405180604001604052807f0b47de0616e638a085645d9e1acaee3e7604e54ab597511e19c76b7f891e744481526020017f125fc2df0de299204474954e75da16e578e38ee5464a13b0ac9896a83d87c9d4815250815260200160405180604001604052807f1805dd78b20ed790008ebc645d61c313a7e2eb972a3c6e1b4bf9ba4ef04f517b81526020017f14537e929d780c6b3c17f4470bbc52d60c4fa9fbbad5a9756587d5d0ac2291048152508152508160c001819052506003604051908082528060200260200182016040528015613d7d57816020015b613d6a61519e565b815260200190600190039081613d625790505b508160e0018190525060405180604001604052807f2b64a4e7c8bf21e45ffb5b422f31fea73247478f72d77a15a227234c3ce5f66381526020017f0687e94d92e170ff78d88b7431681eacad1fd3fb73b1084edafe264b6137e4ba8152508160e001516000815181101515613dee57fe5b9060200190602002018190525060405180604001604052807f18cce5acee26a3c28b286c213dea5e91e407494366f8c14c22b5d9719c8f895881526020017f211c0759737dfa6bffe0ce1d2b8d99f109915f93dfacf2f48721a28e96780cf98152508160e001516001815181101515613e6357fe5b9060200190602002018190525060405180604001604052807f1816a9cd07ec3e0cabf7ce8e40a0911a08097a31dbdbcac481a1d7c511f7830281526020017f2d265f27014ea990be7176add2ed3221eaee7bb9a0e035dd281fb94133b2f12c8152508160e001516002815181101515613ed857fe5b9060200190602002018190525090565b613ef06150d8565b613ef86151b8565b8360000151816000600381101515613f0c57fe5b6020020181815250508360200151816001600381101515613f2957fe5b60200201818152505082816002600381101515613f4257fe5b6020020181815250506000606083608084600060076107d05a03f190508060008114613f6d57613f6f565bfe5b50801515613f7c57600080fd5b505092915050565b613f8c6150d8565b613f946151da565b8360000151816000600481101515613fa857fe5b6020020181815250508360200151816001600481101515613fc557fe5b6020020181815250508260000151816002600481101515613fe257fe5b6020020181815250508260200151816003600481101515613fff57fe5b602002018181525050600060608360c084600060066107d05a03f19050806000811461402a5761402c565bfe5b5080151561403957600080fd5b505092915050565b6140496150d8565b60007f30644e72e131a029b85045b68181585d97816a916871ca8d3c208c16d87cfd47905060008360000151148015614086575060008360200151145b156140aa5760405180604001604052806000815260200160008152509150506140d8565b6040518060400160405280846000015181526020018285602001518115156140ce57fe5b0683038152509150505b919050565b6140e56151fc565b604051806040016040528060405180604001604052807f198e9393920d483a7260bfb731fb5d25f1aa493335a9e71297e485b7aef312c281526020017f1800deef121f1e76426a00665e5c4479674322d4f75edadd46debd5cd992f6ed815250815260200160405180604001604052807f090689d0585ff075ec9e99ad690c3395bc4b313370b38ef355acdadcd122975b81526020017f12c85ea5db8c6deb4aab71808dcb408fe3d1e7690c43d37b4ce6cc0166fa7daa815250815250905090565b6000606060026040519080825280602002602001820160405280156141e657816020015b6141d361519e565b8152602001906001900390816141cb5790505b5090506060600260405190808252806020026020018201604052801561422657816020015b614213615222565b81526020019060019003908161420b5790505b5090508682600081518110151561423957fe5b906020019060200201819052508482600181518110151561425657fe5b906020019060200201819052508581600081518110151561427357fe5b906020019060200201819052508381600181518110151561429057fe5b906020019060200201819052506142a7828261487f565b92505050949350505050565b6000606060036040519080825280602002602001820160405280156142f257816020015b6142df61519e565b8152602001906001900390816142d75790505b5090506060600360405190808252806020026020018201604052801561433257816020015b61431f615222565b8152602001906001900390816143175790505b5090508882600081518110151561434557fe5b906020019060200201819052508682600181518110151561436257fe5b906020019060200201819052508482600281518110151561437f57fe5b906020019060200201819052508781600081518110151561439c57fe5b90602001906020020181905250858160018151811015156143b957fe5b90602001906020020181905250838160028151811015156143d657fe5b906020019060200201819052506143ed828261487f565b925050509695505050505050565b600073ffffffffffffffffffffffffffffffffffffffff166003600083815260200190815260200160002060009054906101000a900473ffffffffffffffffffffffffffffffffffffffff1673ffffffffffffffffffffffffffffffffffffffff161415156144b85760006003600083815260200190815260200160002060006101000a81548173ffffffffffffffffffffffffffffffffffffffff021916908373ffffffffffffffffffffffffffffffffffffffff1602179055505b50565b6144d3600182600001546144f490919063ffffffff16565b816000018190555050565b6001816000016000828254019250508190555050565b600061453683836040518060400160405280601e81526020017f536166654d6174683a207375627472616374696f6e206f766572666c6f770000815250614b12565b905092915050565b61454781612fee565b1515156145bc576040517f08c379a00000000000000000000000000000000000000000000000000000000081526004018080602001828103825260158152602001807f546f6b656e20616c72656164792065786973747321000000000000000000000081525060200191505060405180910390fd5b816002600083815260200190815260200160002060006101000a81548173ffffffffffffffffffffffffffffffffffffffff021916908373ffffffffffffffffffffffffffffffffffffffff160217905550614655600460008473ffffffffffffffffffffffffffffffffffffffff1673ffffffffffffffffffffffffffffffffffffffff1681526020019081526020016000206144de565b808273ffffffffffffffffffffffffffffffffffffffff16600073ffffffffffffffffffffffffffffffffffffffff167fddf252ad1be2c89b69c2b068fc378daa952ba7f163c4a11628f55a4df523b3ef60405160405180910390a45050565b6008805490506009600083815260200190815260200160002081905550600881908060018154018082558091505090600182039060005260206000200160009091929091909150555050565b60606000821415614749576040518060400160405280600181526020017f30000000000000000000000000000000000000000000000000000000000000008152509050614836565b600082905060005b600082141515614777578080600101915050600a8281151561476f57fe5b049150614751565b6060816040519080825280601f01601f1916602001820160405280156147ac5781602001600182028038833980820191505090505b50905060006001830390505b60008614151561482e57600a868115156147ce57fe5b0660300160f81b8282806001900393508151811015156147ea57fe5b9060200101907effffffffffffffffffffffffffffffffffffffffffffffffffffffffffffff1916908160001a905350600a8681151561482657fe5b0495506147b8565b819450505050505b919050565b60606148778383604051806020016040528060008152506040518060200160405280600081525060405180602001604052806000815250614bd4565b905092915050565b60008151835114151561489157600080fd5b60008351905060006006820290506060816040519080825280602002602001820160405280156148d05781602001602082028038833980820191505090505b50905060008090505b83811015614aae5786818151811015156148ef57fe5b9060200190602002015160000151826000600684020181518110151561491157fe5b9060200190602002018181525050868181518110151561492d57fe5b9060200190602002015160200151826001600684020181518110151561494f57fe5b9060200190602002018181525050858181518110151561496b57fe5b9060200190602002015160000151600060028110151561498757fe5b602002015182600260068402018151811015156149a057fe5b906020019060200201818152505085818151811015156149bc57fe5b906020019060200201516000015160016002811015156149d857fe5b602002015182600360068402018151811015156149f157fe5b90602001906020020181815250508581815181101515614a0d57fe5b90602001906020020151602001516000600281101515614a2957fe5b60200201518260046006840201815181101515614a4257fe5b90602001906020020181815250508581815181101515614a5e57fe5b90602001906020020151602001516001600281101515614a7a57fe5b60200201518260056006840201815181101515614a9357fe5b906020019060200201818152505080806001019150506148d9565b50614ab7615248565b60006020826020860260208601600060086107d05a03f190508060008114614ade57614ae0565bfe5b50801515614aed57600080fd5b6000826000600181101515614afe57fe5b602002015114159550505050505092915050565b60008383111582901515614bc1576040517f08c379a00000000000000000000000000000000000000000000000000000000081526004018080602001828103825283818151815260200191508051906020019080838360005b83811015614b86578082015181840152602081019050614b6b565b50505050905090810190601f168015614bb35780820380516001836020036101000a031916815260200191505b509250505060405180910390fd5b5060008385039050809150509392505050565b6060808690506060869050606086905060608690506060869050606081518351855187518951010101016040519080825280601f01601f191660200182016040528015614c305781602001600182028038833980820191505090505b509050606081905060008090506000809050600090505b8851811015614cbb578881815181101515614c5e57fe5b90602001015160f81c60f81b8383806001019450815181101515614c7e57fe5b9060200101907effffffffffffffffffffffffffffffffffffffffffffffffffffffffffffff1916908160001a9053508080600101915050614c47565b600090505b8751811015614d34578781815181101515614cd757fe5b90602001015160f81c60f81b8383806001019450815181101515614cf757fe5b9060200101907effffffffffffffffffffffffffffffffffffffffffffffffffffffffffffff1916908160001a9053508080600101915050614cc0565b600090505b8651811015614dad578681815181101515614d5057fe5b90602001015160f81c60f81b8383806001019450815181101515614d7057fe5b9060200101907effffffffffffffffffffffffffffffffffffffffffffffffffffffffffffff1916908160001a9053508080600101915050614d39565b600090505b8551811015614e26578581815181101515614dc957fe5b90602001015160f81c60f81b8383806001019450815181101515614de957fe5b9060200101907effffffffffffffffffffffffffffffffffffffffffffffffffffffffffffff1916908160001a9053508080600101915050614db2565b600090505b8451811015614e9f578481815181101515614e4257fe5b90602001015160f81c60f81b8383806001019450815181101515614e6257fe5b9060200101907effffffffffffffffffffffffffffffffffffffffffffffffffffffffffffff1916908160001a9053508080600101915050614e2b565b82995050505050505050505095945050505050565b604051806102e00160405280614ec861526a565b8152602001614ed561526a565b8152602001614ee261528c565b8152602001614eef61526a565b8152602001614efc61526a565b8152602001614f0961526a565b8152602001614f1661526a565b8152602001614f2361526a565b8152602001614f3061526a565b8152602001600073ffffffffffffffffffffffffffffffffffffffff16815260200160008152602001600080191681525090565b8260028101928215614f93579160200282015b82811115614f92578251825591602001919060010190614f77565b5b509050614fa091906152b9565b5090565b82600280028101928215614fe3579160200282015b82811115614fe257825182906002614fd2929190614f64565b5091602001919060020190614fb9565b5b509050614ff091906152de565b5090565b60405180610240016040528061500861519e565b815260200161501561519e565b8152602001615022615222565b815260200161502f61519e565b815260200161503c61519e565b815260200161504961519e565b815260200161505661519e565b815260200161506361519e565b81525090565b60405180610320016040528061507d615222565b815260200161508a61519e565b8152602001615097615222565b81526020016150a4615222565b81526020016150b161519e565b81526020016150be615222565b81526020016150cb615222565b8152602001606081525090565b604051806040016040528060008152602001600081525090565b8154818355818111156151195781836000526020600020918201910161511891906152b9565b5b505050565b828054600181600116156101000203166002900490600052602060002090601f016020900481019282601f1061515f57805160ff191683800117855561518d565b8280016001018555821561518d579182015b8281111561518c578251825591602001919060010190615171565b5b50905061519a91906152b9565b5090565b604051806040016040528060008152602001600081525090565b6040518060600160405280600390602082028038833980820191505090505090565b6040518060800160405280600490602082028038833980820191505090505090565b604051806080016040528061520f61526a565b815260200161521c61526a565b81525090565b604051806080016040528061523561526a565b815260200161524261526a565b81525090565b6040518060200160405280600190602082028038833980820191505090505090565b6040518060400160405280600290602082028038833980820191505090505090565b60405180608001604052806002905b6152a361526a565b81526020019060019003908161529b5790505090565b6152db91905b808211156152d75760008160009055506001016152bf565b5090565b90565b61530791905b8082111561530357600081816152fa919061530a565b506002016152e4565b5090565b90565b50600081556001016000905556fe546869732066756e6374696f6e2068617320746f20626520617070726f766564206f72206f776e65722146726f6d2061646472657373206973206e6f74206f776e657220616472657373215472616e73616374696f6e207375636365737366756c6c792076657269666965642e4e6577206f776e65722063616e27742062652063757272656e74206f776e6572214f6e6c79206f776e65722063616e20706572666f726d207468697320616374696f6e21a165627a7a7230582099e4b4c4225b8a697371f4cffd14c94e0c71bec37e4f4c3e1d3062638336ebec002968747470733a2f2f73332d75732d776573742d322e616d617a6f6e6177732e636f6d2f756461636974792d626c6f636b636861696e2f63617073746f6e652f",
  "source": "pragma solidity >=0.5.0 <=0.8.17;\n\nimport './ERC721Mintable.sol';\n// TODO define a contract call to the zokrates generated solidity contract <Verifier> or <renamedVerifier>\nimport './Verifier.sol';\n\n// TODO define another contract named SolnSquareVerifier that inherits from your ERC721Mintable class\ncontract SolnSquareVerifier is ERC721Mintable, Verifier {\n\n    Verifier verifierContract;\n\n    constructor(address verifierAddress) ERC721Mintable() public {\n        verifierContract = Verifier(verifierAddress);\n    }\n\n    // TODO define a solutions struct that can hold an index & an address\n    struct Solution {\n        uint[2] a;\n        uint[2] a_p;\n        uint[2][2] b;\n        uint[2] b_p;\n        uint[2] c;\n        uint[2] c_p;\n        uint[2] h;\n        uint[2] k;\n        uint[2] input;\n        address solutionAddress;\n        uint256 tokenId;\n        bytes32 key;\n    }\n\n    // TODO define an array of the above struct\n    mapping(uint256 => Solution) solutions;\n\n    // TODO define a mapping to store unique solutions submitted\n    mapping(bytes32 => bool) submittedSolutions;\n\n\n    // TODO Create an event to emit when a solution is added\n    event SolutionAdded(address solution);\n\n\n    // TODO Create a function to add the solutions to the array and emit the event\n    function addSolution(uint[2] memory a, uint[2] memory a_p, uint[2][2] memory b, uint[2] memory b_p, uint[2] memory c, uint[2] memory c_p, uint[2] memory h, uint[2] memory k, uint[2] memory input, address solutionAddress, uint256 tokenId) public returns (bool) {\n        bytes32 key = keccak256(abi.encodePacked(a, b, c, input, solutionAddress, tokenId));\n        Solution memory solution = Solution(a, a_p, b, b_p, c, c_p, h, k, input, solutionAddress, tokenId, key);\n        solutions[tokenId] = solution;\n        emit SolutionAdded(msg.sender);\n    }\n\n    // TODO Create a function to mint new NFT only after the solution has been verified\n    //  - make sure the solution is unique (has not been used before)\n    //  - make sure you handle metadata as well as tokenSuplly\n    function mint(address solutionAddress, uint256 tokenId) public returns (bool) {\n        require(solutions[tokenId].solutionAddress != address(0));\n        Solution memory solution = solutions[tokenId];\n        bool verification = verifierContract.verifyTx(solution.a, solution.a_p, solution.b, solution.b_p, solution.c, solution.c_p, solution.h, solution.k, solution.input);\n        if(verification) {\n            submittedSolutions[solution.key] = true;\n            super.mint(solutionAddress, tokenId);\n            return true;\n        } else {\n            submittedSolutions[solution.key] = true;\n            return false;\n        }\n    }\n\n}",
  "sourcePath": "/Users/saschagetzinger/Dev/Blockchain Dev/5_Capstone/Blockchain-Capstone/eth-contracts/contracts/SolnSquareVerifier.sol",
  "compiler": {
    "name": "solc",
    "version": "0.5.5+commit.47a71e8f.Emscripten.clang"
  },
  "schemaVersion": "3.4.9",
  "updatedAt": "2022-09-27T21:09:19.788Z",
  "devdoc": {
    "methods": {
      "isApprovedForAll(address,address)": {
        "details": "Tells whether an operator is approved by a given owner",
        "params": {
          "operator": "operator address which you want to query the approval of",
          "owner": "owner address which you want to query the approval of"
        },
        "return": "bool whether the given operator is approved by the given owner"
      },
      "setApprovalForAll(address,bool)": {
        "details": "Sets or unsets the approval of a given operator An operator is allowed to transfer all tokens of the sender on their behalf",
        "params": {
          "approved": "representing the status of the approval to be set",
          "to": "operator address to set the approval"
        }
      },
      "supportsInterface(bytes4)": {
        "details": "implement supportsInterface(bytes4) using a lookup table"
      },
      "tokenByIndex(uint256)": {
        "details": "Gets the token ID at a given index of all the tokens in this contract Reverts if the index is greater or equal to the total number of tokens",
        "params": {
          "index": "uint256 representing the index to be accessed of the tokens list"
        },
        "return": "uint256 token ID at the given index of the tokens list"
      },
      "tokenOfOwnerByIndex(address,uint256)": {
        "details": "Gets the token ID at a given index of the tokens list of the requested owner",
        "params": {
          "index": "uint256 representing the index to be accessed of the requested tokens list",
          "owner": "address owning the tokens list to be accessed"
        },
        "return": "uint256 token ID at the given index of the tokens list owned by the requested address"
      },
      "totalSupply()": {
        "details": "Gets the total amount of tokens stored by the contract",
        "return": "uint256 representing the total amount of tokens"
      }
    }
  },
  "userdoc": {
    "methods": {}
  }
}